:020000040800F2
:10000000F82A00244D0300081F3A0008693100084F
:100010001D3A000831100008A94400080000000043
:100020000000000000000000000000000343000882
:100030003310000800000000213A000805430008C2
:100040006B0300086B0300086B0300086B030008D8
:100050006B0300086B0300086B0300086B030008C8
:100060006B0300086B0300086B0300086B030008B8
:100070006B0300086B0300086B0300086B030008A8
:100080006B0300086B0300086B0300086B03000898
:100090006B0300086B0300086B0300086B03000888
:1000A0006B0300086B0300086B0300086B03000878
:1000B0006B0300086B0300086B0300086B03000868
:1000C0006B0300086B0300086B0300086B03000858
:1000D0006B0300086B0300086B0300086B03000848
:1000E0006B0300086B030008000000006B030008AE
:1000F0006B0300086B0300086B0300086B03000828
:100100006B0300086B0300086B0300086B03000817
:100110006B0300086B0300086B0300086B03000807
:100120006B0300086B0300086B0300086B030008F7
:100130006B0300086B0300086B0300086B030008E7
:1001400000000000000000000000000000000000AF
:100150006B0300086B0300086B0300086B030008C7
:100160006B0300086B0300086B0300086B030008B7
:100170006B0300086B0300086B0300086B030008A7
:100180006B0300086B0300086B0300086B03000897
:100190006B0300086B0300086B0300086B03000887
:1001A0006B0300086B0300086B0300086B03000877
:1001B0006B0300086B0300086B0300086B03000867
:1001C0006B0300086B0300086B0300086B03000857
:1001D0006B0300086B0300086B0300086B03000847
:1001E0006B0300086B0300086B0300086B03000837
:1001F0006B0300086B0300086B0300086B03000827
:100200006B0300086B0300086B0300086B03000816
:100210006B0300086B0300086B0300086B03000806
:100220006B0300086B0300086B030008000000006C
:100230006B0300086B030008000000006B0300085C
:100240006B0300086B0300086B0300086B030008D6
:100250006B0300086B0300086B0300086B030008C6
:100260006B0300086B0300086B0300086B030008B6
:100270006B0300086B0300086B030008000000001C
:100280006B0300086B0300086B030008000000000C
:10029000000000006B03000800F002F800F046F8D0
:1002A0000AA090E8000C82448344AAF10107DA45D1
:1002B00001D100F03BF8AFF2090EBAE80F0013F0DD
:1002C000010F18BFFB1A43F001031847F8AB0000F9
:1002D00018AC0000103A24BF78C878C1FAD8520789
:1002E00024BF30C830C144BF04680C6070470000B0
:1002F0000023002400250026103A28BF78C1FBD82F
:10030000520728BF30C148BF0B60704700207047BC
:100310001FB504F0A9F99DE8030000F05BFC00F0B4
:1003200061F91FBD10B500F0C6F910BD00F02EFA3E
:100330001146FFF7EDFF04F003F900F01DFC03B4D4
:10034000FFF7F0FF03BC00F0D7FD00000A4880472C
:100350000A4880470A480047FEE7FEE7FEE7FEE757
:10036000FEE7FEE7FEE7FEE7FEE7FEE70548064993
:10037000064A074B70470000CD100008B143000843
:1003800099020008F80A0024F82A0024F81A002428
:10039000F81A00240FB4044910B503AA029800F01B
:1003A0000BF910BC5DF814FBF00900242DE9F05F97
:1003B000894604464FF0000ADFF874B1FB44C0F8E8
:1003C00020A02046E1688847002874D0252806D060
:1003D000D4E901219047206A401C2062F1E7002601
:1003E0005F462046E16888472028054607DB312D17
:1003F00005D2781910F8200C08B10643F1E7B007D0
:1004000001D526F00406C4F81CA00027C4F818A0E3
:100410002A2D09D0284604F059F838B304EB870890
:10042000303DC8F8185019E059F8041B204604EB79
:1004300087029161E1688847012F054618D1E0697C
:10044000002820DA26F020061DE0D8F8180000EB7E
:10045000800005EB40003038C8F818002046E168FD
:100460008847054604F032F80028EED1012F0AD063
:100470002E2D08D12046E16888477F1C0546022FB3
:1004800046F02006C4DBA069002803DA404246F0AB
:100490000106A061F00701D026F010066C2D0BD0EC
:1004A000682D09D04C2D39D06A2D35D0742D35D01A
:1004B0007A2D33D016E038E0E1682F462046884791
:1004C000B842054609D16C2F26D04FF48060E16810
:1004D000064320468847054604E06C2F1AD04FF4A7
:1004E000807006430DB3A5F14100192802D82035CC
:1004F00046F400664A462946204626604E46FFF7E7
:1005000005FF80B101280BD0F61D26F0070000F191
:10051000080956E74020E4E78020D8E70020D6E726
:1005200006F104094DE7284652E7206ABDE8F09F2E
:10053000E6AA00004FF0000200B513469446964626
:10054000203922BFA0E80C50A0E80C50B1F12001E6
:10055000BFF4F7AF090728BFA0E80C5048BF0CC094
:100560005DF804EB890028BF40F8042B08BF7047F2
:1005700048BF20F8022B11F0804F18BF00F8012B64
:10058000704770477047704701694A1C02610878DC
:10059000704700B58FB0CDE90131002105910549C3
:1005A0007944CDE9031011466846FFF7FFFE0FB00E
:1005B00000BD0000E5FFFFFF074B70B50D467B4413
:1005C000FFF7E7FF0446284600F008F810B14FF0A7
:1005D000FF3070BD204670BD193F0000007B00F069
:1005E0008000704710B542485421FFF7A3FF4148EF
:1005F0005421FFF79FFF40485421FFF79BFF3F49DD
:100600003B483C4A3F4B08603D490A603A49196003
:10061000531C0365481C1065012008653B48344A9B
:1006200039A1784400F00CFA20B9384878440A38E7
:1006300000F0ABFA37482F4A35A1784400F000FAB1
:1006400020B9344878440A3800F09FFA32482A4AE0
:100650002FA1784400F0F4F920B92F4878440A38E3
:1006600000F093FA40232248DC000021224600F0EB
:10067000C4F920B125487844543800F086FA1D4862
:1006800022464023002100F0B8F920B121487844E7
:10069000543800F07AFA184822461023002100F05E
:1006A000ACF9002806D01C487844BDE81040563804
:1006B00000F06BBA10BD104870B5006D20F0010459
:1006C0000B4800F033FA0B4800F030FA0A4800F00B
:1006D0002DFA09E0206D20F00105204600F026FAF1
:1006E000204600F078F82C46002CF3D170BD0000B5
:1006F0009C090024F0090024440A0024A0000024DE
:10070000A4000024A80000247200000091A80000AA
:10071000770000007DA8000069A800000EB5CDE9B3
:10072000000100F0C9FB029069460120ABBE0EBD7E
:1007300008B5694600900220ABBE08BD1FB58DE824
:10074000070069460520ABBE04B010BD1FB58DE89B
:100750000F0069460620ABBEF6E708B56946009073
:100760000920ABBE08BD1CB5CDE9000169460A20D1
:10077000ABBE1CBD704708B5694600900C20ABBEEF
:1007800008BD000000487047980A00247546FFF72E
:10079000F9FFAE4605006946534620F0070085463E
:1007A00018B020B5FFF7E2FDBDE820404FF000068D
:1007B0004FF000074FF000084FF0000B21F0070149
:1007C000AC46ACE8C009ACE8C009ACE8C009ACE88C
:1007D000C0098D46704770B50446051F00F0DEF96C
:1007E0000068002C14BF446870BD002C18BFAC42D8
:1007F0003CBF20466468F8D301680A18AA4218BFB3
:10080000456003D12A6805461144016028684119F2
:10081000A1421CBF6C6070BD6168696021680844BA
:10082000286070BD2DE9F04705460C46C86820F4E5
:10083000201040F48000C860800602D5084600F011
:10084000FAFAE06841F282014FF0FF3901400229D3
:1008500003D0204600F098FAB5E000F42041B1F54D
:10086000004F0FD1C00306D56168E06A884200D806
:100870000846606006E02069E06260606069FFF73A
:100880007AFFA061A0680022EEB200280DDAE168CC
:100890008B050AD4C043A06041F490302260E06030
:1008A0006068411C61600670A5E0E06890462260C7
:1008B00040F40050E060206968BB6069FFF74DFFBD
:1008C000012704F12405A0B1A08910F4407F08D0CD
:1008D000E06900F0AEF9206118B1E06840F4006012
:1008E00016E0E7612561E06820F4407040F4806024
:1008F0000EE0E06900F09DF900282061F1D0E06889
:1009000040F4006010F4407FE06002D140F4807059
:10091000E06020696060E06825696FF0010AC10548
:100920001FD56168E06A884200D80846411B04D0A0
:100930002246284600F032FAF0BBE068010203D5F7
:10094000E562C4E9015854E0691CE1626160E16953
:1009500040F48030491EC4E9021030462E70BDE8D4
:10096000F087010202D500F480320AE06068411C81
:1009700061600670E0680A2E40F48030E06006D0C6
:100980000022E16A6068814203D90B4602E001223D
:10099000F7E70346A7895B1B7F0503D4E7699F42FE
:1009A00000DDE2B1814200D80146E5620F1AC4E9D8
:1009B0000158002B09DD00E005E0224619462846D3
:1009C00000F0ECF908B14846C9E747B1A069E56213
:1009D0006560C01BA061E06840F01000E060E06866
:1009E000000208D56168A069E562491B084465609A
:1009F000A0615046B3E73046B1E770B5C468A507BB
:100A000013D0650211D4B2F5807F09D0B2F5007F12
:100A100006D0B2F5806F08D1012300F1240106E071
:100A20005D1E6FF07F46B54201D3012070BD0161AC
:100A3000C361416024F470611143C160002070BD46
:100A40002DE9F0410C4607461646104600F06EF8B8
:100A50002078611C61280AD0722802D077283CD106
:100A600002E00125002405E00225042402E0082418
:100A700048F2020511F8010B2B2806D0622809D094
:100A800011F8010C74280AD00BE045F0030544F07E
:100A90000204EFE745F0040544F00104EAE744F0FE
:100AA000100438462146FFF739FE411C15D00021BD
:100AB000316171604FF40071F560F1617061200780
:100AC00004D530460222002100F0E2F8306D40F0FB
:100AD000010030653046BDE8F0810020FBE72DE9DC
:100AE000F0410D460646104C206DC10704D0410868
:100AF00004D020F00104F7E722460EE0542000F075
:100B000098F807000ED0206D47F0010108435421EA
:100B100020653846FFF70EFD3A4629463046BDE8C7
:100B2000F0418DE70020D6E79C0900242DE9F0472D
:100B300004464FF000094FF0FF37C568D4E904863A
:100B4000A80707D0204600F053F93046FFF7F0FD24
:100B5000002802DA3846BDE8F087280502D540466D
:100B6000FFF739FE4C212046FFF7E4FC206D20F012
:100B7000010020654846EEE710B50446AFF300805B
:100B80002046BDE81040FFF7DABB10B500F07AF957
:100B9000BDE8104000F070B9704700000048704791
:100BA000A00A0024704770477047704738B5044664
:100BB0000A4600206946AFF30080002808BF38BD10
:100BC00002460099204600F0A4F9012038BD01201A
:100BD00000F0F3B9F8B5AFF30080054600200C46ED
:100BE000102000BF0646A819A0420DD9324669461A
:100BF0000020AFF30080070008BF00F0DEF9009886
:100C0000A04218BF0546C419FFF7C8FF0560074694
:100C1000F01D20F007004619284600F073F9B44291
:100C200008BFF8BDA21B31463868BDE8F84000F0A7
:100C300070B970B50646FFF7B1FF056806F10B0005
:100C400020F00704B4429CBF002070BD2B466A68A8
:100C5000BAB11068A04210D304F1080188423CBF29
:100C60005068586007D35168101941601168091B1A
:100C7000016058601460101D70BD13465268002A50
:100C8000E7D121462846FFF791FF0028DED170BD4D
:100C90002DE9F041044616460D464769007B800762
:100CA0002ED03846FFF759FD50BB3EB3012E02D07F
:100CB000022E25D104E0204600F045F905441DE050
:100CC0003846FFF758FDE168002841F01001E16067
:100CD00005DA204600F058F80120BDE8F081C9038C
:100CE0000BD56268E16A914200D81146A2691144AD
:100CF0002269891A814200DD08460544002D01DA87
:100D00000220EAE7E16A6068E268814206D2910364
:100D1000E06203D522F4003141F01002A6690027F9
:100D2000AE4213DCE16A814201D90B4600E0034682
:100D300003EB060C2369ACEB030CAC4506DD8142EA
:100D400001D98C4600E084469C4505D1A760276008
:100D500042F02000A5620DE0AD1BE669AE1B8142AA
:100D6000A66000D90846C01A281A20605819606089
:100D700022F0200003490840E060002084F8487019
:100D8000ABE70000BFCFD7FFC16821F4001141F0ED
:100D90008001C16000218160016070472DE9F0474A
:100DA000814614460E464FF0FF383248D5685769E1
:100DB000054209D03846A169FFF7D5FC002811DBB0
:100DC0002C48C0430540E5602B463246494638462C
:100DD000FFF7B4FCA16920F00042B21A11440028C8
:100DE000A16103D02046FFF7CFFF4046BDE8F08762
:100DF00070B504460569C06A6168884200D8084633
:100E0000E16821F42011E160C90312D5A84208D09D
:100E10002246411B2846FFF7C1FF10B14FF0FF30BB
:100E200070BD0020E562C4E90150E06820F4803024
:100E3000E060002070BD10B50446C06820F02000BE
:100E4000E060A16AA06988420DD02046FFF7D0FF7C
:100E5000E06820F4405040F01000E060A06AA0611B
:100E60002069E062606044F24001E0688843E0602D
:100E700010BD000010000200002801D000F03CB8B6
:100E80007047000010B5014602A000F07DF8012077
:100E900010BD000053494752545245443A20526510
:100EA0006469726563743A2063616E2774206F70A1
:100EB000656E3A200000000010B5431C02E010F8F7
:100EC000011B71B18107FAD14FF0013202C88C1AAF
:100ED0008C4314EAC211F9D0C01A0A0603D0C01E0E
:100EE00010BDC01A10BD0A0401D0801E10BD090239
:100EF000FCD0401E10BD000001491820ABBEFEE72B
:100F00002600020000210160C0E901107047102096
:100F10007047034640688C46002818BF88423CBF93
:100F200003464068F8D318681844884207D00CF18B
:100F3000030020F00700001D411A521A0146081D47
:100F40000A60FFF748BC10B50146C268900703D09D
:100F5000900607D5886A0AE000F03EF8012101609A
:100F6000881E10BD8B69486818440B69C01A91F837
:100F700048301BB191F84910401A10BD1103FCD53F
:100F80000028FADD401E10BD70B505460C460A204B
:100F900000E06D1C00F018F835B128780028F8D171
:100FA00002E0641C00F010F814B120780028F8D199
:100FB000BDE870400A2000F007B810B500F010F846
:100FC000BDE81040FFF758BF08B569468DF800002E
:100FD0000320ABBE08BD000000487047980A0024FB
:100FE00010B5012805D0002103A0FFF7CDFF012097
:100FF00010BD09A1F8E7000053494752544D454D33
:101000003A204F7574206F662068656170206D65A9
:101010006D6F7279000000003A2048656170206DA4
:10102000656D6F727920636F72727570746564009C
:10103000FEE770472DE9F05F14469B46D21D071965
:10104000D2087F1E12FB04F2002596B20A19521E26
:1010500093B2BAB202F002FBDFF864A00021AAF555
:10106000006924E0BAF800700020BAF804304FF0AC
:1010700001081BF80120BFB21FFA83F308FA00FC35
:101080001CEA020F02D029F8157001E029F815308A
:101090006D1CADB2B5FBF4FC04FB1C5CBCF1000F95
:1010A00003D0401CC0B20828E8D3491C89B2B14221
:1010B000D8D314FB04F1BDE8F05F024802F08ABB0C
:1010C0008C0900248C01002472B6FEE7054805490E
:1010D0000839026842F00202026008688004FCD508
:1010E000704700000C480258114810B50F490068BD
:1010F000884205D00FA0FFF74DF94FF0FF3010BD2B
:101100001448154A0168914205D014A0FFF742F92E
:101110006FF0010010BDD0E901231A4801600121E0
:10112000C0E9012318480170002010BD47414C461A
:10113000D072F491D7D6BFE2B1EAD6BECEDED0A748
:10114000A3ACD7D6BFE2BFC9C4DCCEB4C9D5C2BC3C
:101150000000000000FEF391474C425447423233F6
:101160003132B6D4D5D5B1EDB1EAD6BECEDED0A7F8
:10117000A3ACB6D4D5D5B1EDBFC9C4DCCEB4C9D506
:10118000C2BC0000800100241C000024014612485B
:1011900070B54FF0FF34007848B11048260C09882C
:1011A0000F4A85684BBA406800212A4410E00DA020
:1011B000FFF7F0F80EE000BF32F82150B54209D039
:1011C0009D4204D102EB8100B0F9020070BD491CC0
:1011D0008842F1D8204670BD1C0000248001002404
:1011E00000FEF3914742323331325F46696E644903
:1011F0006E6465785F466C6173683A20D7D6BFE24B
:10120000CEB4B3F5CABCBBAF0000000070B5044655
:1012100000F038F90546601C02D004480078044408
:1012200000F030F9401BA042FAD370BD000000244A
:101230002DE9F84F03247D4D00234FF001094FF0B5
:10124000B04B4FF00F0AE9E009FA03F73A4076D0C5
:101250000E7906F00306012E01D0022E18D1D0F827
:1012600008C04FEA430ECE6804FA0EF82CEA080CC8
:1012700006FA0EF646EA0C068660D0F804C00E792F
:101280002CEA070CC6F300169E4046EA0C064660A0
:101290000E79F643B6070BD0C6684FEA43088F684D
:1012A00004FA08FC26EA0C0607FA08F73743C76079
:1012B0000E7906F00306022E12D1DE080F694FEAFE
:1012C000437C00EB8606B646366A4FEADC6C0AFAC7
:1012D0000CF807FA0CF726EA08063743CEF8207018
:1012E0000F7906684FEA430807F0030704FA08FC81
:1012F00007FA08F726EA0C06374307604E6816F42B
:10130000403F1CD04A4E376847F0020737603668C6
:101310009F0706F00206009623F0030606F1B0468A
:10132000B6463F0FD6F80864DFF808810AFA07FCD2
:10133000404526EA0C0603D14FF0000C41E06CE07A
:10134000DFF8F4C0604502D14FF0010C39E0DFF85E
:10135000ECC0604502D14FF0020C32E0DFF8E0C093
:10136000604502D14FF0030C2BE0DFF8D8C0604598
:1013700002D14FF0040C24E0DFF8CCC0604502D16C
:101380004FF0050C1DE0DFF8C4C0604502D14FF0FE
:10139000060C16E0DFF8B8C0604502D14FF0070C2C
:1013A0000FE0DFF8B0C0604502D14FF0080C08E054
:1013B000DFF8A4C0604502D14FF0090C01E04FF006
:1013C0000A0C0CFA07FC4CEA060CCEF808C44F686D
:1013D000DBF80060FF0226EA020600D516435F46EE
:1013E000CBF80060D1F804C0DBF804605FEA8C2C15
:1013F00026EA020600D516437E606E684F6826EA2C
:101400000206BF0300D516436E602E684F6826EAB9
:101410000206FF0300D516432E605B1C0A6832FAF1
:1014200003F67FF411AFBDE8F88F0000800000588C
:10143000F444025800000258000402580008025800
:10144000000C0258001002580014025800180258EC
:10145000001C02580020025800240258426921EA68
:1014600002030A4043EA0241816170470AB1816187
:1014700070470904FBE7000001480068000C704752
:101480000010005C014880687047000000000024E4
:10149000024881680278114481607047000000248E
:1014A000032010B500F078F801F0B4F80F4A1049A5
:1014B00014681368C4F3032203F00F038A5CC95C49
:1014C00002F01F0201F01F01D0400A4A20FA01F188
:1014D0001160094908600F2000F010F808B10120E0
:1014E00010BD00F02BF8002010BD00001844025879
:1014F00072460008100000240C00002470B50D4D49
:1015000004462878A0B14FF47A71B1FBF0F00A4993
:101510000968B1FBF0F001F014FE48B9102C07D2B5
:1015200000222146501E00F017F800206C6070BDAC
:10153000012070BD000000240C000024054808B5FF
:10154000016841F002010160006800F002000090B3
:1015500008BD0000F44402580E4BF0B41B680D4661
:10156000C3F30223C3F10706042E00D90426191D74
:10157000072901D2002300E0DB1E012404FA06F152
:101580009C40491E2940641E994014402143F0BCF0
:1015900002F08BBF0CED00E0064900F0070210B529
:1015A0004FF6FF040868044B204040EA022018432D
:1015B000086010BD0CED00E00000FA05134970B59D
:1015C0000A68D243520705D5096801F00701814234
:1015D00013D118E00A6822F0070202430A60FFF7FD
:1015E00051FF0A4D4FF47A760446083D07E000BFEC
:1015F000FFF748FF001BB04201D9012070BD2868E9
:10160000C0438004F4D4002070BD00000C48025890
:101610002DE9F84F1E4615468A460446FFF732FF6D
:10162000814694F8400001280ED001274FF00008B1
:1016300084F8407094F84100012807D05FF0020060
:1016400084F84080BDE8F88F0220FBE74221C4F80F
:10165000448084F84110002220214B462046009609
:1016600002F0B0FB0028EBD121682868886221686D
:10167000686848622168A868C862206829690268A9
:1016800022F4400242F4800211430160E9684FF005
:1016900000622046CAF82810514602F0C2F9012221
:1016A0004B4608212046009602F08CFB0028C7D14B
:1016B00022680821D16084F84170C1E72DE9F84F14
:1016C00017468B460446FFF7DDFE824694F840003D
:1016D00001280ED001264FF0000884F8406094F8ED
:1016E0004100012807D0022584F840802846BDE843
:1016F000F88F0220FBE74FF00209C4F8448084F819
:1017000041900022202153462046009702F05AFBC8
:101710000500E9D100225946204602F082F9DBF8A3
:10172000240058B90122534602212046009702F0B6
:1017300049FB0500D8D12168C1F80C9084F84160BC
:10174000D2E70000F8B50446FFF79CFE05461CB141
:1017500094F8410010B107E00120F8BD204600F0E8
:101760008DF841F28830A06420686FF0FF02A16814
:10177000036802EB012223F4F85111430160A06CCD
:10178000002220212B460090204602F01BFB00285F
:10179000E3D12268D4E907352679E168176845EA7C
:1017A0000665DFF844C01943104B29430025012684
:1017B00007EA0C07394311602268D4E90517B4F829
:1017C00010C0D2F804E039430EEA030E4EEA0C438F
:1017D0001943516021680A6842F001020A60656499
:1017E00084F84160F8BD00002FFFFF00FEF8E0FF25
:1017F0002DE9F843164688460446FFF743FE0346A4
:1018000094F8400001280ED0012084F84000002701
:1018100094F84100012808D05FF0020584F8407078
:101820002846BDE8F8830220FBE7A06C82216764AC
:1018300084F84110002220210090204602F0C2FAD4
:101840000500EBD120687268016821F0080111439E
:101850000160706808280AD122681021306810637E
:101860002068C1602068016841F4801101604FF078
:1018700040624146204602F0D4F8CFE72DE9F0411E
:10188000B6B00446142130A8FEF754FEC0216846C5
:10189000FEF750FE2949206888424CD10020139061
:1018A0004FF000710446CDE90010684600F0AEF834
:1018B00008B1FFF709FC2248016841F4804101604A
:1018C000006800F4804035901D480C30016841F0FC
:1018D00040010160016801F040013591016841F06B
:1018E000200101600068022532AA00F02000359036
:1018F0004020CDE93005032612480A2782E8D000AF
:1019000030A9FFF795FC09213294DFF83C804FF4B1
:101910009860CDE93361CDE9300530A94046FFF745
:1019200087FC300232AACDE9300530A9404682E872
:10193000D000FFF77DFC36B0BDE8F08100500052CA
:10194000D444025800180258001402582DE9F84FE8
:1019500015460E460446FFF795FD824620688169CC
:1019600094F8403000F12009012B0DD001274FF0F1
:10197000000884F8407094F84120012A06D0022023
:1019800084F84080BDE8F88F0220FBE7C4F844806B
:10199000A6B3222284F841200269521CA263026984
:1019A000521C62632663426922F0406242F0806208
:1019B0004261206881610EE00621204602F002FAB1
:1019C000C8B999F80000216B0870206B401C206397
:1019D000A06B401EA063A06B53464FF00102009520
:1019E0000028E9D14FF00201204602F0EBF910B9CE
:1019F00022680221D16084F84170C1E7FFE7616C81
:101A0000012041F008016164BAE700002DE9FE4FB2
:101A10000546DFF8E48350F8081B0024F64FC9435D
:101A2000019005F12800264608F1240800900801DD
:101A30001DD4A86E50B1B0F5801F0CD0B0F5001FBA
:101A40000ED0B0F5401F1ED001240FE0386840F4DE
:101A50000030386017E00198022102F0D7F903E066
:101A60000098022102F062FA04000CD02646288871
:101A7000C043C00523D4A86D05281ED2DFE800F0BE
:101A80000C11161B1B00AA6ED8F8001021F440118F
:101A90001143C8F80010EAE7386840F400303860B5
:101AA00009E00198002102F0B1F903E0009800215B
:101AB00002F03CFA044674B100E00124264628886E
:101AC000C043800528D4E86D80281ED00CDC90B17E
:101AD00040280ED114E0AA6DD8F8001021F00701BB
:101AE0001143C8F80010EAE7C02813D0B0F5807F92
:101AF00010D001240FE0386840F40030386009E06D
:101B00000198002102F082F903E00098002102F020
:101B10000DFA04469CB126462888DFF8DC92C043C3
:101B200009F12C0940052CD4D5F8A800B0F5800F98
:101B300020D00DDCA0B1B0F5001F0FD115E0EA6D8B
:101B4000D8F8001021F4E0711143C8F80010E3E761
:101B5000B0F5C00F13D0B0F5000F10D001240FE086
:101B6000386840F40030386009E00198002102F044
:101B70004DF903E00098002102F0D8F904467CB149
:101B800026462888C04300052DD4D5F8AC00B0F116
:101B9000007F21D00EDCA8B1B0F1807F10D116E01B
:101BA000D5F8A820D9F8001021F460011143C9F834
:101BB0000010E6E7B0F1407F13D0B0F1806F10D095
:101BC00001240FE0386840F40030386009E00198E3
:101BD000002102F01BF903E00098002102F0A6F9B1
:101BE000044674B126462868C04380011FD4E86CBF
:101BF000D8B110280FD0202812D0302815D00124B9
:101C000014E0D5F8AC20D9F8001021F0E0611143C0
:101C1000C9F80010E7E7386840F40030386004E0A5
:101C20000198022102F0F2F8044674B12646288891
:101C3000C043C0042BD4286EB0F5005F20D00DDC6B
:101C4000A0B1B0F5805F0FD115E06B48EA6C203091
:101C5000016821F0300111430160E8E7B0F5405F11
:101C600013D0B0F5804F10D001240FE0386840F455
:101C70000030386009E00198002102F0C7F803E065
:101C80000098002102F052F904468CB126462888BB
:101C9000C043800429D4686EB0F5403F23D010DCE7
:101CA00008B3B0F5803F14D0B0F5003F0FD115E078
:101CB0002A6ED8F8001021F4E0411143C8F8001052
:101CC000E5E7B0F5802F0ED0B0F5A02F0BD00124A2
:101CD0000AE00198012102F099F803E0009801213F
:101CE00002F024F9044694B126462888C0434004F3
:101CF0002AD4D5F8B000B0F1405F23D010DC08B38F
:101D0000B0F1805F14D0B0F1005F0FD115E06A6EC2
:101D1000D8F8001021F4E0211143C8F80010E4E7DE
:101D2000B0F1804F0ED0B0F1A04F0BD001240AE0EB
:101D30000198012102F06AF803E00098012102F005
:101D4000F5F8044674B126462888C04300041FD421
:101D5000286FD8B1B0F1805F0ED0B0F1005F10D025
:101D6000012414E0D5F8B020D9F8001021F0E041AA
:101D70001143C9F80010E7E7386840F400303860D4
:101D800004E00198012102F041F8044674B12646AE
:101D90002868C043C0011ED4A86CD0B101280ED061
:101DA000022811D0032814D0012413E02A6FD8F898
:101DB000001021F040511143C8F80010E8E73868DE
:101DC00040F40030386004E00198022102F01EF86F
:101DD0000446ACB126462868DFF81CB0C043ABF11E
:101DE0001C0B400252D40548016841F48071016027
:101DF000FFF748FB824611E02C4402580048025885
:101E0000FA48AA6C016821F0030111430160E2E77E
:101E1000FFF738FBA0EB0A00642835D8F4480068C7
:101E2000C005F5D58CBBDFF8C4A3B5F8B4100AF132
:101E3000240ADAF8000001F4407100F4407088428E
:101E400011D0DAF80010DAF8002021F4407142F4E1
:101E50008032CAF80020DAF8002022F48032CAF872
:101E60000020CAF80010D5F8B400B0F5807F1AD170
:101E7000FFF708FB029012E0FFF704FB0299411AFA
:101E800041F2883081420AD9032426462878DFF8B7
:101E90005CA3C0430AF1080AC00721D03CE0DAF88D
:101EA00000008007E8D5D5F8B410C1F3012003285D
:101EB00058460DD0016821F47C510160B5F8B4207A
:101EC000DAF80010C2F30B021143CAF80010DDE784
:101ED000C84A036802EA111223F47C511143ECE76B
:101EE000E86F182816D005DCA0B1082808D0102803
:101EF00004D10AE020280DD028280BD001240AE0C4
:101F00000198012101F082FF03E00098012102F015
:101F10000DF8044664B126462878C04380071ED4D5
:101F2000A86F062819D2DFE800F0160C1116161655
:101F3000EA6FDAF8001021F038011143CAF80010F6
:101F4000EAE70198012101F061FF03E00098012117
:101F500001F0ECFF04467CB100E00124264628781D
:101F6000C04340071FD4D5F89400062819D2DFE8F3
:101F700000F0160C11161616AA6FDAF8001021F0F0
:101F800007011143CAF80010E9E70198012101F0A7
:101F90003DFF03E00098012101F0C8FF0446A4B111
:101FA00000E0012426462878C04380062BD4D5F8CB
:101FB0009000B0F1405F24D011DC10B3B0F1805F2D
:101FC00015D0B0F1005F10D116E0D5F89420D9F803
:101FD000001021F007011143C9F80010E3E7B0F148
:101FE000804F0ED0B0F1A04F0BD001240AE0019831
:101FF000002101F00BFF03E00098022101F096FFA1
:10200000044694B126462878C04340062BD4D5F820
:102010009C00B0F5406F24D011DC10B3B0F5806F98
:1020200015D0B0F5006F10D116E0D5F89020DAF891
:10203000001021F0E0411143CAF80010E3E7B0F5C9
:10204000805F0ED0B0F5A05F0BD001240AE00198AC
:10205000002101F0DBFE03E00098022101F066FFA1
:10206000044694B126462878C04300062BD4D5F800
:10207000A000B0F5C04F24D011DC10B3B0F5005F64
:1020800015D0B0F5804F10D116E0D5F89C20D9F8C6
:10209000001021F4E0511143C9F80010E3E7B0F556
:1020A000004F0ED0B0F5204F0BD001240AE001986C
:1020B000002101F0ABFE03E00098022101F036FFA1
:1020C000044654B126462878C04300071ED4D5F8EC
:1020D0008400B0F5805F0AD00FE0D5F8A020D9F8D1
:1020E000001021F460411143C9F80010EBE700989B
:1020F000022101F01BFF00B10126D5F88420DAF897
:10210000001021F440511143CAF800102878C04350
:10211000C00613D4D5F89800B0F5807F05D100989B
:10212000022101F003FF00B10126D5F89820D9F86B
:10213000001021F440711143C9F800102868C04311
:10214000000316D4D5F8A40038B1B0F5803F09D00B
:10215000B0F5003F0BD001240AE00198002101F006
:1021600055FE03E00098022101F0E0FE04468CB128
:1021700026462868C043400322D4D5F88800B0F52D
:10218000801F11D0B0F5001F13D0B0F5401F15D03F
:10219000012414E0D5F8A420D9F8001021F440312E
:1021A0001143C9F80010E4E7386840F400303860A3
:1021B00004E00098012101F0B9FE04465CB1264616
:1021C0002868C043C00323D4286DA8B1B0F5803F70
:1021D00017D001241BE0D5F88820DAF8001021F48C
:1021E00040111143CAF80010EAE700004C440258BD
:1021F00000480258CFFFFF00386840F400303860D4
:1022000004E00198022101F001FE0446E4B12646F3
:102210002868C043800005D40098022101F086FEA2
:1022200000B101262868C04380031BD4D5F8800084
:10223000B0B1B0F5807F0FD0B0F5007F10D0B0F511
:10224000407F0DD001240CE05A482A6D016821F42A
:10225000803111430160DBE7386840F400303860BA
:10226000ECB326462868C043C00207D46A6FD8F88A
:10227000001021F000411143C8F800102868C04345
:10228000C00008D4D5F8B820DBF8001021F4804154
:102290001143CBF800102868C043800207D4EA6ECF
:1022A000D8F8001021F080711143C8F80010286898
:1022B000C04340000CD4DBF8001021F40041CBF8FF
:1022C0000010DBF80010D5F8BC201143CBF800104B
:1022D0002868C04308D437486A6D016800E018E0F8
:1022E00021F04051114301602868C043000208D426
:1022F000D5F88C20DAF8001021F440011143CAF817
:10230000001028790024C04300F0010020430AD0C7
:102310000FE0D5F88020DAF8001021F44071114365
:10232000CAF800109EE70198002101F06FFD00B18E
:1023300006462879C04300F00200204305D10198E9
:10234000012101F063FD00B106462879C04300F089
:102350000400204305D10198022101F057FD00B18E
:1023600006462879C04300F00800204305D10098B4
:10237000002101F0DBFD00B106462879C04300F0E2
:102380001000204305D10098012101F0CFFD00B1DC
:1023900006462879C04300F02000044304D1009889
:1023A000022101F0C3FD00B916B10120BDE8FE8F86
:1023B0000020FBE74C4402582DE9F05F04000F4673
:1023C0007ED0DFF83882D8F8000000F00F00B84265
:1023D0000CD2D8F8001021F00F013943C8F80010D2
:1023E000D8F8000000F00F00B84269D12078844D81
:1023F00040070AD52069296801F07001884204D994
:10240000296821F070010143296020787C4E361D37
:1024100000070AD56069316801F07001884204D96B
:10242000316821F07001014331602078C0060AD57F
:10243000A069316801F4E061884204D9316821F46F
:10244000E061014331602078DFF8B4B180060BF120
:10245000080B0CD5E1695846DBF8002002F0700249
:10246000914204D9026822F070020A430260207887
:1024700080070AD5E068296801F00F01884204D975
:10248000296821F00F01014329602078C0073ED060
:102490005B49A2682868183920F4706010432860EE
:1024A0006068022818D0032819D00968012819D0BB
:1024B000490700294ADADFF848A1AAF1080A00E032
:1024C00044E0DAF8002022F007020243CAF80020B4
:1024D000FEF7D8FF814612E009688903E9E7096839
:1024E0008901E6E7C905E4E7FEF7CCFFA0EB0901A7
:1024F00041F28830814202D90320BDE8F09F616833
:10250000DAF8000000F03800B0EBC10FECD1207811
:1025100080070AD5E068296801F00F01884204D2DB
:10252000296821F00F0101432960D8F800104046C6
:1025300001F00F01B9420BD9016821F00F013943B5
:102540000160006800F00F00B84201D00120D4E71C
:10255000207840070AD52069296801F07001884277
:1025600004D2296821F07001014329602078000716
:102570000AD56069316801F07001884204D231687F
:1025800021F07001014331602078C0060AD5A069AE
:10259000316801F4E061884204D2316821F4E061DD
:1025A00001433160207880060CD5E1695846DBF89C
:1025B000002002F07002914204D2026822F0700200
:1025C0000A43026000F026F80E492A682B68C2F31D
:1025D000032203F00F038A5CC95C02F01F0201F0C2
:1025E0001F01D040084A20FA01F111600749086034
:1025F00007480068BDE8F05FFEF780BF002000528A
:102600001844025872460008100000240C000024F0
:1026100004000024454970B545480968434B103B08
:1026200011F0380208D00111082A03D0102A0BD06B
:10263000182A0BD0084670BD19688906FBD51968A1
:10264000C1F3C101C84070BD3A4870BD3749374D2C
:1026500018310C1D24350A68096826682D6802F0B7
:10266000030406F00102C1F30511C5F3CC0515FB07
:1026700002F200EE102AB8EE400AE9B32F4ADFED6D
:102680002E0AB7EE001A6CB1DFED2D1A012C01D025
:10269000022C43D002EE101A1068F8EE422A81EEA6
:1026A000A22A1EE01C68A40611D51B6801EE901A30
:1026B0001168C3F3C103F8EE612AD84001EE900A15
:1026C000C1F30800F8EE611A81EEA22A0BE001EED8
:1026D000901ADFED1C2A00BFF8EE611A106882EE36
:1026E000A12AC0F3080001EE900AF8EE611A40EE4C
:1026F000201A31EE810A00E015E022EE000A10688F
:10270000C0F34620401C00EE900AF8EE600A80EE0E
:10271000201ABCEEC10A10EE100A70BD01EE901A2C
:10272000DFED092AD8E7002070BD000010440258F0
:102730000090D00340787D010000003930440258F9
:102740000024744A0024744C20BCBE4B2DE9F05F79
:1027500004007DD0FF4F2078FE4D1837DFF8F4934A
:10276000103DC00748D0D9F80000396800F03800A3
:10277000102815D0182803D101F0030002280FD02B
:102780006068B0F5803F12D010B1B0F5A02F18D01E
:10279000286820F480302860286820F4802009E030
:1027A0002868800328D560680028D2D024E02868F3
:1027B00040F480302860606888B1FEF763FE06460A
:1027C00009E0286840F480202860F0E7FEF75AFE10
:1027D000801B64286FD828688003F7D50CE0FEF7CB
:1027E00051FE064605E000BFFEF74CFE801B642844
:1027F000F0D828688003F7D4207841F20308D54E3A
:102800000C3E800769D5D9F80000396810F038000F
:102810000ED0182801D188070AD0E06890B3296843
:1028200021F0190101432960FEF72CFE824631E0B8
:102830002868400702D5E06800288AD0E168286847
:1028400020F0190008432860FEF71CFE824607E0CE
:10285000DFE000BFFEF716FEA0EB0A000228B9D8A1
:1028600028684007F6D500BFFEF706FE40451BD896
:102870002069402812D0316821F47C3141EA0030CF
:1028800030602AE018E000BFFEF7FCFDA0EB0A0074
:1028900002289FD828684007F6D5E5E7306820F47D
:1028A0007C3040F40030EBE7207C316821F0FE41C1
:1028B00041EA0060E4E70DE1286820F001002860AB
:1028C000FEF7E0FD824605E0FEF7DCFDA0EB0A0026
:1028D00002288DD828684007F6D42078C0065DD538
:1028E000D9F80000DFF86CB2396800F03800ABF1BD
:1028F000040B082810D0182803D101F00300012888
:102900000AD0E0690028286838D040F080002860AC
:10291000FEF7B8FD824623E02868C00523D5E069AC
:10292000802876D11FE0206A202821D0316821F04C
:10293000F84141EA8060306030E000BF94F8201038
:10294000DBF8002022F07C5242EA0161CBF8001053
:1029500024E000BFFEF796FDA0EB0A00022898D8FD
:102960002868C005F6D5FEF787FD4045E6D8DAE7CA
:10297000306820F0F84040F08040DCE720F0800034
:102980002860FEF77FFD064605E000BFFEF77AFDF2
:10299000801B02289DD82868C005F7D4207800073E
:1029A00029D56C486169643000298046016811D0DE
:1029B00041F001010160FEF765FD064605E000BF3C
:1029C000FEF760FD801B0228C9D8D8F800008007F8
:1029D000F6D510E021F001010160FEF753FD064637
:1029E00005E000BFFEF74EFD801B022872D8D8F824
:1029F00000008007F6D42078800623D5A06900283F
:102A0000286810D040F480502860FEF73BFD064651
:102A100005E036E1FEF736FD801B02285AD828680B
:102A20008004F7D50EE020F480502860FEF72AFDE0
:102A3000064604E0FEF726FD801B02284AD82868D7
:102A40008004F7D4207840074FD5DFF80C81D8F800
:102A5000001041F48071C8F80010FEF713FD06461F
:102A600005E000BFFEF70EFD801B642832D8D8F8C1
:102A70000000C005F6D5374EA068603601280AD0A0
:102A800008B1052813D0306820F0010030603068AC
:102A900020F0040002E0306840F001003060A068DF
:102AA00041F2883A90B1FEF7EDFC80460AE03068CA
:102AB00040F004003060EEE7FEF7E4FCA0EB080114
:102AC000514507D830688007F6D50EE0FEF7DAFCEE
:102AD000804607E084E000BFFEF7D4FCA0EB0801CD
:102AE00051457DD830688007F6D4606AB0B3DFF80E
:102AF0006480D9F8001008F120084FF6F87B08F13F
:102B00000409C1F3C2010329A8F1040A69D002280B
:102B1000286820F08070286003D0FEF7B3FC0446DC
:102B200084E0FEF7AFFC064605E000BFFEF7AAFC16
:102B3000801B022877D828688001F7D4E26A40F227
:102B4000F331386854F8283F884340EA02101843AC
:102B5000386004E01044025800480258B5E0217B78
:102B6000434622894FF4FE0C208A4FF0FE4749026B
:102B7000267D521E401EA1F50071C2F308088AB2DC
:102B8000761E0CEA004042EA08020243504607EA79
:102B900006610A431A60DAF8002022F00102CAF83E
:102BA0000020D9F80020266A22EA0B0242EAC60277
:102BB000C9F80020DAF80010A26921F00C011143D5
:102BC000CAF800100168E26921F0020111430160B6
:102BD000016841F480310160016841F4003101E095
:102BE00021E027E00160016841F480210160016873
:102BF00041F001010160286840F080702860FEF714
:102C000041FC044605E000BFFEF73CFC001B022827
:102C100009D828688001F7D557E000BFFEF732FCDD
:102C2000001B022802D90320BDE8F09F286880011C
:102C3000F4D44AE039680128D8F8000021D0A26A0B
:102C400001F0030393421CD1E26AC1F305118A42E9
:102C500017D1216BC0F30802491E8A4211D1616B62
:102C6000C0F34622491E91420BD1A16BC0F306422C
:102C7000491E914205D1E16BC0F30660491E8142B5
:102C800001D00120D0E7A16C4E46D9F80000C0F376
:102C9000CC00814219D0DAF80000554620F001003E
:102CA000CAF80000FEF7EEFB4FEA0007FEF7EAFB6A
:102CB000B842FBD0A26C306820EA0B0040EAC200A8
:102CC0003060286840F0010028600020ACE7000078
:102CD0002DE9F047040029D0594A4FF00009206837
:102CE000584B594D9042C4F8289006D0984204D0D1
:102CF000A84202D0E1680F2918D8E1684FF0010A14
:102D0000E76B0831C9080AEB57167143904205D0AA
:102D1000984203D0A84201D0082907D8904203D096
:102D2000984201D0A84204D1102902D90120BDE85F
:102D3000F08794F8810020B9204684F8809000F054
:102D400085F8022084F881002068016821F00101E3
:102D500001602068A1698268B1F1806F02F4F81106
:102D600010D16268B2F5800F01D01AB10AE0A26BEF
:102D700022B107E0A26BB2F1805F03D1026842F496
:102D8000805202606068400209D5E068072806D3D7
:102D90002068236D026822F480721A4303E02068E1
:102DA000026822F480720260A66AE069E26B25681C
:102DB0003043E3680A4310431843A860D4E90D0286
:102DC000D4E90581636A25691843D4F820C00A4311
:102DD000266810432843A56DD4E90172D4E9123165
:102DE00040EA080040EA0C00384308431043184307
:102DF0002843F060606868B92068816821F4C05198
:102E000041F4006181602068816821F4C06141F46F
:102E1000806181602068016D21F0010101656068B9
:102E2000400206D52068626DC16821F0004111435F
:102E3000C160C4F8849084F881A0002077E7000086
:102E40000030014000380040003C004070B5B6B092
:102E50000446142130A8FDF76DFBC0216846FDF73C
:102E600069FB2349206888423FD100202C904FF411
:102E700080410446CDE900106846FEF7C7FD08B161
:102E8000FEF722F91B48016841F02001016000684B
:102E900000F02000359017481438016841F0010116
:102EA0000160016801F001013591016841F04001C4
:102EB0000160006807210225329400F0400035903F
:102EC0000326A803CDE93361CDE930050A4830A9CE
:102ED000FEF7AEF9052132947003CDE93361CDE9F7
:102EE0003005064830A9FEF7A3F936B070BD0000E2
:102EF00000140058F4440258000002580018025808
:102F00002DE9F84F044600689946174600F1200B5A
:102F10008A46FEF7B7FA064694F88100012839D1AF
:102F2000BAF1000F7ED0002FFCD094F88000012869
:102F300030D0A26800254FF0010884F8808003217A
:102F400084F88110C4F88450C4F85CA06566A4F8C5
:102F50006850656725672C34B2F5C02FA786E786D1
:102F6000E58754F82C0D18D0C16821F4C02141F434
:102F70000031C160206841686FF30F01394341603F
:102F80002068016841F0010101606068B0F5800FC0
:102F900008D00CE00220BDE8F88F016841F4006120
:102FA0000160E7E72068016841F400710160E068B2
:102FB0000F281CD820E02068416989070BD5E16DF6
:102FC00009680162E06D001DE065B4F86200401E12
:102FD000A4F862000BE0FEF755FA811B494503D3C4
:102FE000B9F1FF3F03D09DE0B9F1000F32D0B4F842
:102FF00062000028DFD179E007282FD872E020682E
:10300000416989071ED5B4F8621001290DD9E16B19
:1030100059B1E16D09680162E06D001DE065B4F829
:10302000620000E07CE0801E09E0E06D0188ABF802
:103030000010E06D801CE065B4F86200401EA4F84A
:1030400062000BE0FEF71EFA811B494503D3B9F17C
:10305000FF3F03D066E0B9F1000F63D0B4F862001F
:103060000028CCD142E02068416989072ED5B4F808
:10307000621003290CD9E16B402909D9E16D096877
:103080000162E06D001DE065B4F86200001F1AE007
:10309000B4F8621001290CD9E16B51B1E06D0188DF
:1030A000ABF80010E06D801CE065B4F86200801E93
:1030B00009E0E16D097880F82010E06D401CE065C2
:1030C000B4F86200401EA4F862000BE0FEF7DAF9E3
:1030D000811B494503D3B9F1FF3F03D022E0B9F189
:1030E000000F1FD0B4F862000028BCD100224B466C
:1030F00008212046009601F0E1F828B1D4F88400B8
:1031000040F02000C4F88400204600F09FFF84F8BF
:103110008180D4F8840084F8805000283FF43BAFCD
:10312000012038E7204600F091FFD4F8841084F89D
:10313000805041F48071C4F8841084F881800320A9
:1031400029E7401EB0F1807F10B501D3012010BDEA
:103150004FF0E02460610F21601701F0A6F9002014
:10316000A0610721216110BDFEE7000070B5124C7F
:103170006189A089491E8AB2401E83B20021084697
:1031800000F06CFA01220D481103FEF76FF90C4DA7
:103190000F20E8602846FFF79BFD6289A089A1887F
:1031A000424389B2284600F08BF90720E8602846A0
:1031B000BDE87040FFF78CBD8C0900240018025850
:1031C000F80000242DE9F05FDFF8A0E0203A0023AA
:1031D000274E02F0FF0A894683461A46DEF80000B1
:1031E000194626E0234DD0F80080B5F800C0AF881E
:1031F0000AFB04851FFA8CFCBFB2002413F80550AB
:103200005FEAC57802D026F812C001E026F81270F5
:10321000B0F80480491C521C89B26D0892B28845EE
:1032200001D1002103E0641CA4B2082CE8D35B1C8C
:103230009BB204899C42D5D8C288A9F10101838838
:10324000ABF101001144744618448BB2494682B276
:10325000584600F003FA20688188C088BDE8F05F16
:103260004143034889B200F0B5BA00009800002439
:103270008C0100248C090024F8B50D46064600F0A8
:10328000B7F804460020009011788DF800105178AE
:103290008DF801108DF802006846FDF777FF0100F8
:1032A0001AD4142C4FF010421BD006DC0C2C14D076
:1032B000102C11D10E4B202005E0182C14D0202CFE
:1032C0000AD10C4B802011FB00201233224603440C
:1032D00029463046FDF7AEFEF8BD18204FF0E873E2
:1032E000F1E7054B3C20EEE7044B4820EBE70000FC
:1032F000E0BBD201E069E5010061D6018036DD0165
:103300002DE9F04715468A46044600F071F8DFF8CB
:1033100070900646DFF86C8027462BE07F2A17D88E
:10332000D9F80000B8F80A1080882044884204D9EF
:103330000AEB06003C461FFA80FA20465146FFF78A
:1033400041FFD9F800006D1C8088204484B211E050
:10335000B8F80A00A119814204D90AEB06003C46DC
:103360001FFA80FA2A4651462046FFF785FFA0192A
:1033700084B2AD1C2A78002AD0D1BDE8F0870000C5
:10338000980000248C09002430B587B014216846C9
:10339000FDF7D0F81348016841F080010160016831
:1033A00001F080010591016841F040010160006871
:1033B00000240125694600F040000590402000905F
:1033C000CDE9015408480394FDF732FF280300902B
:1033D000CDE90154054869460394FDF729FF07B07C
:1033E00030BD0000E0440258001C0258001802588A
:1033F0000348406808B1007970470C20704700000E
:103400009800002410B5026840F26F335169946946
:1034100044F0080494610268946944F010049461D3
:103420000268146824F001041460026814699C4363
:1034300014610268936823F44043936090F88120FC
:10344000042A0CD08A060AD5D0F8842042F08002E3
:10345000C0F884200268936943F02003936190F8D8
:103460008120032A0CD04A060AD5D0F8842042F0E5
:103470000402C0F884200268936943F0400393611A
:103480008A050AD5D0F8842042F00102C0F88420D1
:103490000268936943F400739361C9050AD5D0F8B3
:1034A000841041F00801C0F8841001688A6942F470
:1034B00080728A610021A0F86210A0F86A1010BD25
:1034C0002DE9FC5F8A4690F88010044616460020DD
:1034D000019001294FF47A770DD04FF0010884F85C
:1034E0008080FDF7CFFF814694F8810000250128F8
:1034F00004D0022017E00220BDE8FC9F96B1A1682D
:1035000003204AEA0A4B84F88100C4F884506566B7
:10351000A4F86850A4F86A50B1F5C02F6567256714
:1035200004D008E0012084F88050E5E720680168B5
:1035300041F400610160206841686FF30F01416050
:103540002068016841F0010101606068B0F5800FFA
:1035500004D12068016841F400710160206841696C
:1035600089070DD5B4F86210012905D9E16B19B1AD
:10357000C0F820B0B61E17E0A0F820A0761E13E019
:10358000FDF780FFA0EB0900B8420DD32046FFF7FE
:1035900039FFD4F8841084F8805041F48071C4F865
:1035A000841084F8818033E0002ED7D100224B466E
:1035B0004FF480512046009700F02EF828B1D4F83F
:1035C000840040F02000C4F884002068016841F4C1
:1035D0008061016000224B464FF400612046009755
:1035E00000F01AF828B1D4F8840040F02000C4F8A4
:1035F00084002046FFF706FF2068826942F40062DB
:10360000826184F8805084F88180D4F8840008B105
:10361000012071E701986FE72DE9F04198461646C1
:103620000D460746069C09E0FDF72CFFA0EB0800BD
:10363000A04202D3601C01D00BE054B1386840694D
:1036400035EA000007D00020B042EDD00020BDE8F0
:10365000F0810320FBE70120F6E700002DE9F041AF
:10366000984615460E4607462A2000F0D3F80F4C20
:10367000A07B384480B200F0E1F8A07B284480B2FF
:1036800000F0DCF82B2000F0C5F8E07B304480B27D
:1036900000F0D4F8E17B01EB080080B200F0CEF836
:1036A000BDE8F0412C2000F0B5B800008C090024E2
:1036B0004FF478414FF4FC6301EA1021C0F3C402D7
:1036C00003EA501001430248114341607047000073
:1036D0008C0900244FF478414FF4FC6301EA102177
:1036E000C0F3C40203EA50100143024811430160D1
:1036F000704700008C0900242DE9F041174C00258B
:103700004FF4A0764FF0F007607288B1022814D011
:10371000012817D0032809D1362000F07BF8C020FB
:1037200000F0A4F8A573E5736781A681BDE8F08178
:10373000362000F06FF8702008E0362000F06AF8BC
:103740000020EDE7362000F065F8A02000F08EF8AC
:10375000A573E5736681A781E8E700008C09002462
:10376000114A1428114B124910D004DC0C2806D041
:10377000102804D106E018280CD020280ED0C1E96A
:10378000002370470B4808600B480AE00B480860AC
:103790000B4806E00B4808600B4802E00B48086045
:1037A0000B484860704700008C0000242000002473
:1037B00098000024800000242C00002474000024C1
:1037C0003800002468000024440000245C00002429
:1037D0005000002470B501220C4605460B48110329
:1037E000FDF744FE0A4E0F20F0603046FFF770FAF6
:1037F0004FF47A73224629463046FFF781FB0720B3
:10380000F0603046BDE87040FFF762BA0018025819
:10381000F800002401B5074800224FF48051FDF75D
:1038200025FE054801224FF47A736946FFF768FBCD
:1038300008BD000000180258F8000024012238B525
:10384000110304460748FDF711FE200A8DF8000019
:10385000054802224FF47A7369468DF80140FFF75C
:103860004FFB38BD00180258F8000024012201B5B2
:1038700005481103FDF7FAFD044801224FF47A735D
:103880006946FFF73DFB08BD00180258F800002408
:1038900010B504000CD000F027F864082046FDF7AE
:1038A000B5FC00F021F82046BDE81040FDF7AEBCA5
:1038B00010BD0000014800F003B80000140000240F
:1038C000002809D0817901298188006802D001226D
:1038D000FDF7CCBD0022FBE77047002803D08188AC
:1038E0000068FDF7BBBD70470148FFF7F6BF000059
:1038F0001400002430B587B014216846FCF71AFE86
:103900001E48016841F001010160016801F00101F8
:103910000591016841F004010160016801F00401B2
:103920000591016841F040010160016801F040012A
:103930000591016841F080010160016801F080019A
:103940000591016841F02001016000684FF40054C6
:103950000B4D002200F02000214605902846FDF77F
:1039600085FD002100940120CDE901012846039145
:103970006946FDF75DFC07B030BD0000E044025829
:10398000000802580D48012270B50B4E2023102468
:1039900040C01825002180E83C00C0E90412816184
:1039A000C161001FFDF7CEFE002803D0BDE87040C6
:1039B000FDF78ABB70BD000000500052AC0000242F
:1039C00070B515484FF480050021124CEB01072219
:1039D000C0E90321C0E90513C1615A000162202337
:1039E00041626E118162C162C0E90D21C0E90F31EF
:1039F00041648164C16401654165816580E870004E
:103A0000FFF766F9002803D0BDE87040FDF75CBB06
:103A100070BD000000140058F8000024FEE7FEE727
:103A200070472DE9F0434B6A4FF040662BB1B2422C
:103A300003D004688B6A5B1E236100248D690B6AC6
:103A4000002D68D0ABB303688D68DD61CD69EDB141
:103A5000D1E90B38D1F824C04C6B8F8A43EA0803B4
:103A600044EA0C0423430C6A43EA8743D1E9037C0C
:103A700043EA0C0323438C693B430F682B432343E6
:103A80002DE0006849688161BDE8F083D1E90B3C15
:103A90004F6A4D6B8E8A43EA0C033D430F692B43FB
:103AA0000D6A43EA86438E693B4309682B433343DF
:103AB0002AE0FFE7CB69B3F1000917D0D1E90B3851
:103AC0004F6A4C6BB1F814C043EA08033C430F68DB
:103AD0002343CC6843EA8C4323434C4635E00468D7
:103AE0003B431343B2426361CBD1CDE7D1E90B38FD
:103AF0004F6A4E6BB1F814C043EA08033E430968AD
:103B0000334343EA8C4332E005680B4313436B6154
:103B100000688461B8E763B303688D68DD61CD69CF
:103B2000B5B1D1E90B38D1F824C04F6B8C8A43EA88
:103B3000080347EA0C073B430F6A43EA8443D1E991
:103B4000034C43EA0C033B438F6923432B43C6E7F3
:103B5000D1E90B3C4F6A4D6B8E8A43EA0C033D431F
:103B60000F692B430D6A896943EA86433B432B4324
:103B7000CAE7CD6985B1D1E90B384F6A4C6BB1F812
:103B800014C043EA08033C432343CC6843EA8C4314
:103B9000234304682B43A4E74B6A002BA5D0D1E94B
:103BA0000B5C4F6B898A06681F4345EA0C053D4351
:103BB00045EA814111437161AAE7000030B595B033
:103BC0000020012110240C900B020D9305230E9070
:103BD0000A0610928D050190CDE906530F9001AAB7
:103BE000129041F2883313901490CDE90410CDE97E
:103BF0000214054807A9FDF70BFD002801D06FF05E
:103C0000020015B030BD0000AC00002410B500F07B
:103C100095F800F051F80549884201D1002010BD07
:103C200003A0FCF7B7FB4FF0FF3010BD1940EF00C9
:103C30005153504920466C617368204944C6A5C55C
:103C4000E4CAA7B0DC00000030B591B000204FF40A
:103C500040554FF480740994A9100B90EC240695FC
:103C60008A030F90062308930C921090CDE902046A
:103C70000E900A91019000F061F8074801AA03A98B
:103C8000FDF7B6FD002804D004A0FCF783FB6FF01D
:103C9000050011B030BD0000AC0000245153504964
:103CA000C4DAB4E6D3B3C9E4C4A3CABDC7D0BBBBAE
:103CB000CAA7B0DC0000000010B590B000204FF49F
:103CC000807306934FF44054190403940322089020
:103CD0009F230C90009341F288340B900D90079035
:103CE0000590CDE909120E4822466946FDF7E6FC2B
:103CF00028B90B480EA92246FDF728FE28B109A0D5
:103D0000FCF748FB002010B010BD9DF838209DF84E
:103D100039009DF83A10120442EA00200843F2E705
:103D2000AC0000245153504920466C617368B6C101
:103D3000C8A14944CAA7B0DC0000000070B58EB02D
:103D400041F2883400204FF4807166220890CDE95A
:103D50000610009222460B9069460C900D90099037
:103D600005901148FDF7AAFC4FF0FF3560B9FFF749
:103D700025FF6FF0020688B9992000900A48224674
:103D80006946FDF79BFC28B108A0FCF703FB284619
:103D90000EB070BDFFF712FF0028F9D003A0FCF7AA
:103DA000F9FA3046F4E70000AC00002451535049C2
:103DB00020466C617368B8B4CEBBCAB9C4DCCAA76C
:103DC000B0DC00002DE9F041984616460F46044647
:103DD000069D08E0681C06D0FDF754FBA0EB080028
:103DE000A8420AD84DB120688068384000D0012030
:103DF000B042EFD10020BDE8F081042084F84100FA
:103E0000606C40F0010060640120F4E72DE9F047A8
:103E1000454D044689464FF0000A2868C043800794
:103E20000AD0414E283E306820F080603060FDF7B7
:103E300029FB0746B04608E00120BDE8F08700BF37
:103E4000FDF720FBC01B022867D8D8F8000000014E
:103E5000F6D4206829684FF4FE0721F47C313E0235
:103E600041EA00302860207AA389B4F804C04002F7
:103E70002D4D2D495B1E227CACF1010C1035091D26
:103E8000A0F5007080B2521ECCF3080C07EA034381
:103E900040EA0C00184306EA0262104328600868F2
:103EA000626920F0C000104308600A68A06922F02F
:103EB000200202430A60281D0A6822F010020A60EC
:103EC00002684FF6F873E4699A4342EAC40202605A
:103ED0000868B9F1000F40F010020A6011D00868BC
:103EE000B9F1010F11D040F400100860D8F80000BB
:103EF000444640F08060C8F80000FDF7C3FA05466C
:103F00000DE0086840F40020EFE740F48010ECE793
:103F1000FDF7B8FA401B022801D903208DE720687D
:103F20000001F5D5504688E7284402582DE9F047AE
:103F3000454D044689464FF0000A2868C043800773
:103F40000AD0414E283E306820F080503060FDF7A6
:103F500099FA0746B04608E00120BDE8F08700BFA7
:103F6000FDF790FAC01B022867D8D8F8000080003F
:103F7000F6D4208829684FF4FE0721F07C713E02B8
:103F800041EA00502860207AA389B4F804C04002B6
:103F90002D4D2D495B1E227CACF1010C1835091DFD
:103FA000A0F5007080B2521ECCF3080C07EA034360
:103FB00040EA0C00184306EA0262104328600868D1
:103FC000626920F44060104308600A68A06922F426
:103FD000007202430A60281D0A6822F480720A6097
:103FE00002684FF6F873E4699A4342EAC402026039
:103FF0000868B9F1000F40F480720A6011D00868B7
:10400000B9F1010F11D040F080700860D8F80000BD
:10401000444640F08050C8F80000FDF733FA0546EA
:104020000DE0086840F48000EFE740F40000ECE7A2
:10403000FDF728FA401B022801D903208DE72068EC
:104040008000F5D5504688E72844025810B502682C
:1040500040F26F335169946944F008049461026836
:10406000946944F0100494610268146824F0010417
:104070001460026814699C4314610268936823F415
:104080004043936090F88120042A0CD08A060AD518
:10409000D0F8842042F08002C0F88420026893693E
:1040A00043F02003936190F88120032A0CD04A0644
:1040B0000AD5D0F8842042F00402C0F884200268B7
:1040C000936943F0400393618A050AD5D0F88420B0
:1040D00042F00102C0F884200268936943F400733F
:1040E0009361C9050AD5D0F8841041F00801C0F8E1
:1040F000841001688A6942F480728A610021A0F804
:104100006210A0F86A1010BD10B5FFF73DF90A2043
:10411000FDF77CF83620FFF77DFB0020FFF7A6FBBC
:104120003A20FFF777FB0520FFF7A0FBB220FFF74F
:1041300071FB0C20FFF79AFB0C20FFF797FB002088
:10414000FFF794FB3320FFF791FB3320FFF78EFB43
:10415000B720FFF75FFB3520FFF788FBBB20FFF799
:1041600059FB1920FFF782FBC020FFF753FB2C20DF
:10417000FFF77CFBC220FFF74DFB0120FFF776FB2A
:10418000C320FFF747FB1220FFF770FBC420FFF7A7
:1041900041FB2020FFF76AFBC620FFF73BFB0F2007
:1041A000FFF764FBD020FFF735FBA420FFF75EFB91
:1041B000A120FFF75BFBE020FFF72CFBD020FFF7EF
:1041C00055FB0420FFF752FB0D20FFF74FFB11209A
:1041D000FFF74CFB1320FFF749FB2B20FFF746FBB3
:1041E0003F20FFF743FB5420FFF740FB4C20FFF735
:1041F0003DFB1820FFF73AFB0D20FFF737FB0B20A4
:10420000FFF734FB1F20FFF731FB2320FFF72EFBC6
:10421000E120FFF7FFFAD020FFF728FB0420FFF78B
:1042200025FB0C20FFF722FB1120FFF71FFB1320BB
:10423000FFF71CFB2C20FFF719FB3F20FFF716FBB5
:104240004420FFF713FB5120FFF710FB2F20FFF74F
:104250000DFB1F20FFF70AFB1F20FFF707FB2020A5
:10426000FFF704FB2320FFF701FB2120FFF7D2FA21
:104270001120FFF7CFFA7820FCF7C8FF2920FFF7BD
:10428000C9FA0220FFF738FA0020FFF711FA6FF0A1
:104290007F40FFF71FFAFEF769FF1820FFF760FA6B
:1042A00004490020012208724021BDE81040024864
:1042B000FDF7DCB88C090024001C02582DE9F04100
:1042C0001C4616460D460746DDF818800AE000BF7A
:1042D000FDF7D8F8A0EB0800A04202D3601C01D083
:1042E0000BE054B13868406935EA000007D000207F
:1042F000B042EDD00020BDE8F0810320FBE70120B3
:10430000F6E77047FDF7C4B830B59DB04C2168465C
:10431000FCF710F9202113A8FCF70CF90220FDF797
:104320004DF9214800242149026842F440420260CC
:1043300002680A6842F001020A60096801F001019E
:104340001B9101688904FCD502200090402504954A
:104350000121039104220B923C23CDE90904CDE90C
:104360000C300FAB0E900C2183E8130068461294BA
:10437000FEF7ECF908B172B6FEE708221A95CDE90E
:104380001625D30113AA3F200321CDE9185382E853
:104390001300042113A8FEF70FF8002801D072B60D
:1043A000FEE71DB030BD0000184802582C0400582C
:1043B0003348F0B5334A016841F470010160106878
:1043C00000F00F00072804D2106820F00F00C01D75
:1043D00010602D4900202C4C10340B682B4D43F0FD
:1043E00001030B6020600B682B400B60136803F027
:1043F0000F03072B04D9136823F00F03DB1D136091
:10440000214C234A1834234B261D371D20601E4C97
:10441000214D28343060261D3860371D23603B1D38
:1044200035601C1D3A60251D2E1D1860331D22604D
:104430002860326018600A68134B184C22F48022FE
:1044400060330A60186020686FF30F00B0F1005FFE
:1044500003D213490120C1F808010B48D430016888
:10446000C9040BD4026843F2D2010E4B42F48052CD
:1044700002601960016821F480510160F0BD000004
:1044800088ED00E000200052004402587FEDF6EA7B
:1044900080020101000202020000FF010010005C26
:1044A0000080005100400052FEE7090700284FEA53
:1044B000116104DB00F1E02080F80014704700F087
:1044C0000F0000F1E02080F8141D704730380A28F2
:1044D00001D201207047002070478A68002A01DC61
:1044E000FCF7A0B9521E8A604A68C0B2531C4B60E8
:1044F0001070704710B5FFF7DDF9FFF705FEFFF705
:1045000085FBFFF7A1FBFCF7EFFD0021BDE81040A4
:1045100001A20846FEF7F4BED5E2CAC7D2BBB8F680
:10452000B2E2CAD4A3ACB9FEBBF9C3D7C4CFB1B110
:10453000C2CCB6B9A3AC73746D33327E00000000F8
:1045400045490024DFF814810868800311D4BFF3C3
:104550004F8FBFF36F8FC8F80040BFF34F8FBFF38B
:104560006F8F086840F400300860BFF34F8FBFF3CF
:104570006F8FDFF8E490086809F17009A9F1040A67
:10458000364A43F6FF7C1032C0031ED4C9F80040FF
:10459000BFF34F8FDAF80000C0F34E33C0F3C90504
:1045A0000CEA4316284600BF46EA80771760401E93
:1045B000FAD25B1EF4D2BFF34F8F086840F480300C
:1045C0000860BFF34F8FBFF36F8F0868800311D46B
:1045D000BFF34F8FBFF36F8FC8F80040BFF34F8F0B
:1045E000BFF36F8F086840F400300860BFF34F8F4F
:1045F000BFF36F8F0868C0031DD4C9F80040BFF334
:104600004F8FDAF80000C0F34E33C0F3C9040CEA50
:104610004315204645EA80761660401EFAD25B1E9E
:10462000F5D2BFF34F8F086840F480300860BFF3C5
:104630004F8FBFF36F8FFCF733FFFFF765FEFFF778
:1046400059F9FFF7BDF9FFF79DF9FFF753FF00BFD9
:1046500000F006F8FCE7000014ED00E050EF00E089
:104660004FF47A70FFF714B94FF04070E1EE100A82
:104670007047000000000102030401020304060762
:104680000809000000000000000000000000000019
:10469000000000000000000000000000000000001A
:1046A000000000000000000000000000000000000A
:1046B00000000000000000000000000000000000FA
:1046C00000000000000000000000000000000000EA
:104F9000000000000000000000000000000002000F
:104FA000C084FFCC9CC1CC88C1CC80D9CC83D9CC67
:104FB0008ED9CC98D9CC80D9CC80D9CC88D9CC9872
:104FC000CDCC0C0CCC0C36C00C63C0C6C1C07480F8
:104FD0007D000000000000000000B2E220000000A0
:104FE00000000000000000000000000000000000C1
:104FF00000000000000000000000000000000000B1
:1050000000000000000000000000000000000000A0
:105010000000000000000000000000000000000090
:10502000000000000000000000000000000002007E
:105030001B0C007318004338000380FFFF000003BF
:105040001F000318000398FF031818021818069889
:105050001806D8188678188C38F88D9C0F98080098
:10506000F0000000000000000000CAD42000000092
:105070000000000000000000000000000000000030
:105080000000000000000000000000000000000020
:105090000000000000000000000000000000000010
:1050A0000000000000000000000000000000000000
:1050B000000000000000000000000000000000836D
:1050C00001FEFFFF008301F0FF3F300030F0FF3FA3
:1050D000300030F0FF3F300C30000600FEFFFFC014
:1050E000300CF8FF7F67309860301860301F003058
:1050F00000000000000000000000C4BB2000000011
:10510000000000000000000000000000000000009F
:10511000000000000000000000000000000000008F
:10512000000000000000000000000000000000007F
:10513000000000000000000000000000000000006F
:1051400000000000000000000000000000000063FC
:105150000080C100C0800160000330000618001C00
:105160000E00700200C0F8FF0F00030E00030E8057
:105170000106800106C0000660000738FC030E002F
:1051800000000000000000000000B7D62000000072
:10519000000000000000000000000000000000000F
:1051A00000000000000000000000000000000000FF
:1051B00000000000000000000000000000000000EF
:1051C00000000000000000000000000000000000DF
:1051D000000000000000000000000018600C3060BB
:1051E00018306010FEE1FF00600082EDC1C46C6306
:1051F0006C6C36FE65FF306618306618306018FE3D
:10520000B1FF3030183818181C1C180E0E18020286
:1052100018000000000000000000B1E620000000BF
:10522000000000000000000000000000000000007E
:10523000000000000000000000000000000000006E
:10524000000000000000000000000000000000005E
:10525000000000000000000000000000000000004E
:105260000000000000000000000000000000003806
:1052700000007000FFFFFF003800064E608C6338AE
:10528000D03F08001C00202604F8C31CCFFFF10209
:105290003041003000FFFFFF0030000030000030E0
:1052A00000000000000000000000C2CA2000000052
:1052B00000000000000000000000000000000000EE
:1052C00000000000000000000000000000000000DE
:1052D00000000000000000000000000000000000CE
:1052E00000000000000000000000000000000000BE
:1052F000000000000000000000000030800030804E
:105300000130000330FEFFFE06C03086C430401876
:10531000303030301860F00FC03EF87F300003307E
:10532000000330000330000330000330FFFF1E0095
:1053300000000000000000000000BFD820000000B6
:10534000000000000000000000000000000000005D
:10535000000000000000000000000000000000004D
:10536000000000000000000000000000000000003D
:10537000000000000000000000000000000000002D
:10538000000000000000000000000000000080019C
:10539000609801608C0163FC3F6386016382016356
:1053A000FFFF63800163800163FC7F638C61638C1A
:1053B00061638C61608C61608C3D6080013F0000A6
:1053C00000000000000000000000D6C62000000021
:1053D00000000000000000000000000000000000CD
:1053E00000000000000000000000000000000000BD
:1053F00000000000000000000000000000000000AD
:10540000000000000000000000000000000000009C
:10541000000000000000000000000000000000008C
:1054200000FCC77F0CC6600CC660FCC77F0CC66062
:10543000003006FEFFFF006E0000C701F0010F1FE5
:1054400000F8FCC77F0CC6600CC660FCC77F0CC6AA
:1054500060000000000000000000C6F7200000000F
:10546000000000000000000000000000000000003C
:10547000000000000000000000000000000000002C
:10548000000000000000000000000000000000001C
:10549000000000000000000000000000000000000C
:1054A00000000000000000000000000008000018DC
:1054B00000003000FEFFFF0600C00600C0E0FF0F46
:1054C00000000700800100E000003000FFFFFF0047
:1054D0003000003000003000003000801F0000006D
:1054E00000000000000000000000D7D620000000EF
:1054F00000000000000000000000000000000000AC
:10550000000000000000000000000000000000009B
:10551000000000000000000000000000000000008B
:10552000000000000000000000000000000000007B
:10553000000000000000000000000020800130C0DA
:1055400000F8DFFFC8600684710C02390801100002
:1055500060000C70000CB8FFFF3C000C36040C32ED
:105560000C0C30180C30100C30000C30000C30E0FB
:1055700007000000000000000000B7FB2000000052
:10558000000000000000000000000000000000001B
:10559000000000000000000000000000000000000B
:1055A00000000000000000000000000000000000FB
:1055B00000000000000000000000000000000000EB
:1055C0000000000000000000000000000000C030EB
:1055D0000060E000F0FFFF386000F6FFFF3360007E
:1055E000F0FFFF306000F0FFFF30000000300000EF
:1055F0003000FEFFFF00FE018031077030380F30B1
:10560000C0000000000000000000BCAF200000004F
:10561000000000000000000000000000000000008A
:10562000000000000000000000000000000000007A
:10563000000000000000000000000000000000006A
:10564000000000000000000000000000000000005A
:105650000000000000000000000000000000001832
:1056600000001800001800001800FCFF7F0C1860F4
:105670000C18600C18600C18600C1860FCFF7F0C94
:10568000186000180000180000180000180000182A
:1056900000000000000000000000D6D02000000044
:1056A00000000000000000000000000000000000FA
:1056B00000000000000000000000000000000000EA
:1056C00000000000000000000000000000000000DA
:1056D00000000000000000000000000000000000CA
:1056E0000000000000000000000000001C00003866
:1056F00000006000FFFFFF60000C60000CC00006AF
:10570000C0000680010300830100C700006C000098
:10571000380000EE00C0830778003C0600E000007F
:1057200000000000000000000000CEC420000000C7
:105730000000000000000000000000000000000069
:105740000000000000000000000000000000000059
:105750000000000000000000000000000000000049
:105760000000000000000000000000000000000039
:105770000000000000000000000000000000000029
:1057800000F8FF3F180030180030F8FF3F180030D5
:10579000180030F8FF3F18003004C62008C6301843
:1057A000C63830C61820C60800C600FEFFFF00003D
:1057B00000000000000000000000CFD42000000026
:1057C00000000000000000000000000000000000D9
:1057D00000000000000000000000000000000000C9
:1057E00000000000000000000000000000000000B9
:1057F00000000000000000000000000000000000A9
:105800000000000000000000000000000000000098
:1058100000FCFF7F0000000000000000000000000E
:10582000FFFFFF00300020300430300C38301818F3
:1058300030300C30600630C0023080003000801FF5
:1058400000000000000000000000CABE20000000B0
:105850000000000000000000000000000000000048
:105860000000000000000000000000000000000038
:105870000000000000000000000000000000000028
:105880000000000000000000000000000000000018
:105890000000000000000000000000000000000008
:1058A00000FEFFFF0030000030000030003030000C
:1058B00030300030300030F07F3030003030003099
:1058C0003000303000303000303000FFFFFF00008B
:1058D00000000000000000000000D5FD20000000D6
:1058E00000000000000000000000000000000000B8
:1058F00000000000000000000000000000000000A8
:105900000000000000000000000000000000000097
:105910000000000000000000000000000000000087
:105920000000000000000000000000000000000374
:1059300000800100C0FF076000033880010C600098
:10594000F4FF3F30003030303030303030303030E5
:10595000303030303030F83000980300070EE0016E
:10596000781E00C0000000000000B8BA200000004F
:105970000000000000000000000000000000000027
:105980000000000000000000000000000000000017
:105990000000000000000000000000000000000007
:1059A00000000000000000000000000000000000F7
:1059B00000000000000000000000000000000030B7
:1059C0000000300000300000300060300630300C45
:1059D00030301C1830381830300C30600E30E00693
:1059E00030C0023080003000003000C01F000000D6
:1059F00000000000000000000000D0A12000000016
:105A00000000000000000000000000000000000096
:105A10000000000000000000000000000000000086
:105A20000000000000000000000000000000000076
:105A30000000000000000000000000000000000066
:105A40000000000000000000000000000000C00096
:105A500003C60C01C48601C080FFFECF60E0C060B9
:105A6000F8E360CCFE31C39831308031FF0F1B0C5E
:105A70000C1B06060E3C070EE0031BE0C3313C7610
:105A8000E0071880000000000000CAFD20000000B0
:105A90000000000000000000000000000000000006
:105AA00000000000000000000000000000000000F6
:105AB00000000000000000000000000000000000E6
:105AC00000000000000000000000000000000000D6
:105AD0000000000000000000000000000000300096
:105AE0000330000330FEFF300003300003FFFD7F72
:105AF000300C6030FC7F300C6030FC7F300C60B0CC
:105B0000FD7F780C6007FFFF00601C001CF0800325
:105B100000000000000000000000CCEE20000000AB
:105B20000000000000000000000000000000000075
:105B30000000000000000000000000000000000065
:105B40000000000000000000000000000000000055
:105B50000000000000000000000000000000000045
:105B6000000000000000000000000000000000082D
:105B700000001800003800FFFFFF000E00808301C6
:105B8000C0000770000CFCFF3F00C32000C3008072
:105B9000C10080C1C0E0C0C038C0C007807F000025
:105BA00000000000000000000000B3E4200000003E
:105BB00000000000000000000000000000000000E5
:105BC00000000000000000000000000000000000D5
:105BD00000000000000000000000000000000000C5
:105BE00000000000000000000000000000000000B5
:105BF000000000000000000000000000000000386D
:105C000000007000FEFFFF0600C00686C3C0011E34
:105C10003800700600C0000000F8FF3F00180000C8
:105C20001800001800001800001800FEFFFF000018
:105C300000000000000000000000BFD520000000B0
:105C40000000000000000000000000000000000054
:105C50000000000000000000000000000000000044
:105C60000000000000000000000000000000000034
:105C70000000000000000000000000000000000024
:105C80000000000000000000000000000000306084
:105C90000030300030F07F307870FF5B3830CC0C53
:105CA000F88007B8C10F3C7A78360EC033F87F31E0
:105CB000186030186030186030186030F87F301885
:105CC00060000000000000000000B8F120000000AB
:105CD00000000000000000000000000000000000C4
:105CE00000000000000000000000000000000000B4
:105CF00000000000000000000000000000000000A4
:105D00000000000000000000000000000000000093
:106C2000000000000000C003C003C003C003C00395
:106C3000C003800380018001800180018001800108
:106C4000800180010000000000008001C003C0033B
:106C50008001000000000000000000000000C018DB
:106C6000E01CE01C700E300618038C01840000004C
:106C70000000000000000000000000000000000014
:106C80000000000000000000000000000000000004
:106C900000000000000000000000000000000000F4
:106CA00000000000000020102010201020102010F4
:106CB000FE7FFE7FFE7F10081008100810081008E5
:106CC0001008FE7FFE7FFE7F180C080408040804ED
:106CD00008040000000000000000000000000000A8
:106CE000000080008000C003B00C90189818981C19
:106CF000981CB800B000F000E000C0038007800FCF
:106D0000800C801C80189C189C188C188C0C980681
:106D1000E003800080008000000000000000000010
:106D20000000000000001C0836082204630463020F
:106D300063026302630163012201B61C9C36402298
:106D400040634063206320631063106310220836A1
:106D5000081C00000000000000000000000000000F
:106D6000000000000000F00098008C018C018C01F4
:106D70008C018C00CC005C0038001C3E3C083208C2
:106D800073086304E304C3048303834306678C3EF0
:106D9000781C0000000000000000000000001C0043
:106DA0003C003C003000300010000C0006000000E9
:106DB00000000000000000000000000000000000D3
:106DC00000000000000000000000000000000000C3
:106DD0000000000000000000000000000000004073
:106DE000002000100018000C000400060002000340
:106DF0000003800180018001800180018001800109
:106E00008001800100030003000200060004000C62
:106E100000180010002000400000000000000200E8
:106E20000400080018003000200060004000C0008E
:106E3000C00080018001800180018001800180010B
:106E400080018001C000C000C00060002000300050
:106E5000180008000400020000000000000000000C
:106E60000000000000000000000000038003800319
:106E70000C631C713839600D80038003600D383954
:106E80001C718C61800380038003000000000000FF
:106E900000000000000000000000000000000000F2
:106EA00000000000000000000000000000010001E0
:106EB00000010001000100010001FC7F0001000150
:106EC00000010001000100010001000000000000BD
:106ED00000000000000000000000000000000000B2
:106EE00000000000000000000000000000000000A2
:106EF0000000000000000000000000000000000092
:106F0000000000000000000000001C003C003C00ED
:106F10003000300010000C000600000000000000EF
:106F20000000000000000000000000000000000061
:106F300000000000000000000000FE7F00000000D4
:106F40000000000000000000000000000000000041
:106F50000000000000000000000000000000000031
:106F60000000000000000000000000000000000021
:106F70000000000000000000000000000000000011
:106F80000000000000000000000018003C003C0071
:106F900018000000000000000000000000000000D9
:106FA0000040006000200030001000180008000CB5
:106FB0000004000600020003000180018000C00000
:106FC00040006000200030001000180008000C0095
:106FD00004000600020000000000000000000000A5
:106FE000000000000000C0036004300C18181818DE
:106FF00018100C300C300C300C300C300C300C30C5
:107000000C300C300C30181018181818300C6004A4
:10701000C0030000000000000000000000000000AD
:1070200000000000000000018001F80180018001E3
:107030008001800180018001800180018001800148
:107040008001800180018001800180018001C003F6
:10705000F81F000000000000000000000000000019
:10706000000000000000E007101C08180430043085
:107070000C300C30003000180018000C0006000323
:107080008001C00040002020102008200430FC1F98
:10709000FC1F0000000000000000000000000000D5
:1070A000000000000000E00318060C0C0C180C187F
:1070B0000C1800180018000C0006C003000E001881
:1070C0000010003000300C300C300C100C18180C74
:1070D000E0030000000000000000000000000000CD
:1070E0000000000000000006000600070007800600
:1070F00080064006200620061006100608060C062C
:1071000004060206FE3F0006000600060006000612
:10711000C03F000000000000000000000000000070
:10712000000000000000F03FF03F080008000800E9
:10713000080008000800C807280C181808100030BC
:107140000030003000300C300C3004180418180CDB
:10715000E00300000000000000000000000000004C
:107160000000000000008007601830181018180098
:10717000080008000C00CC076C0C1C181C100C300C
:107180000C300C300C300C30183018103018700CDB
:10719000C007000000000000000000000000000028
:1071A000000000000000F83FF83F08100C08040839
:1071B000040400040002000200020001000180003B
:1071C000800080008000C000C000C000C000C0007F
:1071D000C0000000000000000000000000000000EF
:1071E000000000000000E007300C18180C300C30D4
:1071F0000C301C301C107818F004E003180F0C1E23
:107200000C1C063806300630063006300C18180CF8
:10721000E00300000000000000000000000000008B
:10722000000000000000E00318040C080C18061011
:10723000063006300630063006300E380C3418366C
:10724000F03100300018001800080C0C0C060C037C
:10725000F00100000000000000000000000000003D
:10726000000000000000000000000000000000001E
:10727000000000008001C003C00380010000000086
:10728000000000000000000000008001C003C003F7
:10729000800100000000000000000000000000006D
:1072A00000000000000000000000000000000000DE
