:020000040800F2
:10000000E8290024390300087D390008752F00080D
:100010007939000847040008F54500080000000091
:100020000000000000000000000000002B4300085A
:100030004B04000800000000813900082D4300082F
:100040005703000857030008570300085703000828
:100050005703000857030008570300085703000818
:100060005703000857030008570300085703000808
:1000700057030008570300085703000857030008F8
:1000800057030008570300085703000857030008E8
:1000900057030008570300085703000857030008D8
:1000A00057030008570300085703000857030008C8
:1000B00057030008570300085703000857030008B8
:1000C00057030008570300085703000857030008A8
:1000D0005703000857030008570300085703000898
:1000E00057030008570300080000000057030008EA
:1000F0005703000857030008570300085703000878
:100100005703000857030008570300085703000867
:100110005703000857030008570300085703000857
:100120005703000857030008570300085703000847
:100130005703000857030008570300085703000837
:1001400000000000000000000000000000000000AF
:100150005703000857030008570300085703000817
:100160005703000857030008570300085703000807
:1001700057030008570300085703000857030008F7
:1001800057030008570300085703000857030008E7
:1001900057030008570300085703000857030008D7
:1001A00057030008570300085703000857030008C7
:1001B00057030008570300085703000857030008B7
:1001C00057030008570300085703000857030008A7
:1001D0005703000857030008570300085703000897
:1001E0005703000857030008570300085703000887
:1001F0005703000857030008570300085703000877
:100200005703000857030008570300085703000866
:100210005703000857030008570300085703000856
:1002200057030008570300085703000800000000A8
:100230005703000857030008000000005703000898
:100240005703000857030008570300085703000826
:100250005703000857030008570300085703000816
:100260005703000857030008570300085703000806
:100270005703000857030008570300080000000058
:100280005703000857030008570300080000000048
:10029000000000005703000800F002F800F03CF8EE
:1002A0000AA090E8000C82448344AAF10107DA45D1
:1002B00001D100F031F8AFF2090EBAE80F0013F0E7
:1002C000010F18BFFB1A43F00103184764AD00008B
:1002D00084AD0000103A24BF78C878C1FAD852071C
:1002E00024BF30C830C144BF04680C6070470000B0
:1002F0000023002400250026103A28BF78C1FBD82F
:10030000520728BF30C148BF0B6070471FB504F0CB
:100310006FFA1FBD10B510BD00F060F81146FFF771
:10032000F5FF04F0B9F900F07EF803B4FFF7F2FF2F
:1003300003BC00F081F800000A4880470A48804763
:100340000A480047FEE7FEE7FEE7FEE7FEE7FEE7B6
:10035000FEE7FEE7FEE7FEE705480649064A074BCB
:1003600070470000F10400080944000899020008E1
:10037000E8090024E8290024E8190024E8190024E9
:100380004FF0000200B5134694469646203922BF2E
:10039000A0E80C50A0E80C50B1F12001BFF4F7AF79
:1003A000090728BFA0E80C5048BF0CC05DF804EB5B
:1003B000890028BF40F8042B08BF704748BF20F8C9
:1003C000022B11F0804F18BF00F8012B70477047C7
:1003D0007047704700487047840900247546FFF74E
:1003E000F9FFAE4605006946534620F007008546F2
:1003F00018B020B5FFF7B0FFBDE820404FF0000671
:100400004FF000074FF000084FF0000B21F00701FC
:10041000AC46ACE8C009ACE8C009ACE8C009ACE83F
:10042000C0098D46704710B50446AFF300802046E2
:10043000BDE81040FFF779BF01491820ABBEFEE7C9
:1004400026000200704700BFFEE770472DE9F04725
:1004500006460F46144698460025E01DC11700EBDE
:100460005171C1F3CF0909FB04F01FFA80FA381962
:10047000401E83B23019401E82B23946304603F026
:1004800029F8002023E018F8002000211AE00123B9
:100490008B40134033B1124B1B88DFF848C02CF857
:1004A000153005E00E4B9B88DFF838C02CF815306E
:1004B0006B1C9DB295FBF4F304FB135303B903E0EB
:1004C0004B1CD9B20829E2DB00BF411C88B2504561
:1004D000D9DB04FB04F1034803F0F6F8BDE8F0872C
:1004E000740900247401002472B600BFFEE7000006
:1004F0000748006840F002000549086000BF044852
:100500000838006800F400500028F8D07047000058
:100510000C480258014614290ED004DC0C2907D0DF
:1005200010290FD106E0182908D020290AD107E0A8
:10053000182070472020FCE73C20FAE74820F8E725
:100540008020F6E74FF0FF30F3E700000549064A48
:100550000868904201D0C81770470120034A107004
:100560000020F9E7F072F59147414C461C00002449
:10057000014614290FD004DC0C2907D0102910D112
:1005800007E0182909D020290BD108E04FF0E870C6
:1005900070470548FCE70548FAE70548F8E70548CD
:1005A000F6E70020F4E70000E0BBD2010061D601CD
:1005B0008036DD01E069E50102460AB90020704796
:1005C000117801F0800008B90120F8E701F0E0009F
:1005D000C02801D10220F2E701F0F000E02801D1AB
:1005E0000320ECE701F0F800F02801D10420E6E751
:1005F0000120E4E770B5044600F024F906462546DC
:10060000681C10B104480078054400BF00F01AF9D6
:10061000801BA842FAD370BD08000024F8B502463A
:100620000B4600216F4DD7E001278F401E6806EA78
:100630000704002C72D01E7906F00306012E04D0A8
:100640001E7906F00306022E13D190684F00032690
:10065000BE40B0434F00DE68BE40304390605068FB
:1006600001268E40B0431E79C6F300168E403043FB
:1006700050601E7906F00306032E09D0D0684F00A3
:100680000326BE40B0434F009E68BE403043D0605A
:100690001E7906F00306022E13D1CF0802F12006C0
:1006A00056F827004E07F70E0F26BE40B0434F07FF
:1006B000FF0E1E69BE403043CF0802F1200646F807
:1006C000270010684F000326BE40B0431E7906F095
:1006D00003064F00BE40304310605E6806F44036AB
:1006E000002E78D000BF404E366846F002063E4FDE
:1006F0003E603E46366806F00206009600BF00BF28
:100700003A4E8F0856F827008E07370F0F26BE4047
:10071000B043374EB24202D100262EE05BE0354EA8
:10072000B24201D1012628E0334EB24201D1022665
:1007300023E0324EB24201D103261EE0304EB242D7
:1007400001D1042619E02F4EB24201D1052614E052
:100750002D4EB24201D106260FE02C4EB24201D1FD
:1007600007260AE02A4EB24201D1082605E0294EAA
:10077000B24201D1092600E00A268F073F0FBE4092
:1007800030431A4E8F0846F827004FF0B0463068C5
:10079000A0435E6806F4801606B120434FF0B046D1
:1007A00030607068A0435E6806F4001606B120430E
:1007B0004FF0B04670606868A0435E6806F400368B
:1007C00006B1204368602868A0435E6806F480365E
:1007D00006B120432860491C1E68CE40002E7FF4DD
:1007E00023AFF8BD80000058F444025808040058B4
:1007F000000002580004025800080258000C025879
:10080000001002580014025800180258001C025828
:10081000002002580024025810B5426921EA020360
:1008200002EA010443EA0443836110BD0AB1816115
:1008300001E00B048361704701480068000C7047B9
:100840000010005C014800687047000000000024B0
:100850000348006803490978084401490860704763
:10086000000000240800002410B5032000F0A8F8C0
:1008700001F084FB10490968C1F303210F4A515C60
:1008800001F01F0120FA01F40B48006800F00F008E
:100890001146085C00F01F0024FA00F008490860C7
:1008A000084804600F2000F00FF808B1012010BDC7
:1008B00000F036F80020FAE718440258FA4700081A
:1008C000100000240C00002470B504461148007884
:1008D00008B9012070BD0F4800784FF47A71B1FB60
:1008E000F0F00D490968B1FBF0F5284602F028FB4D
:1008F00008B10120EEE7102C07D200222146501E3D
:1009000000F020F80548046001E00120E2E7002043
:10091000E0E70000080000240C000024040000248C
:1009200008B500BF0648006840F0020004490860AE
:100930000846006800F00200009000BF00BF08BD3C
:10094000F44402582DE9F05F80460D46164603F048
:1009500053FE074639462A46334601F00700C0F1E8
:10096000070ABAF1040F02D94FF0040A01E0C0F1FE
:10097000070AD14600F1040ABAF1070F02D24FF07C
:10098000000A01E0A0F1030AD4464FF0010A0AFA76
:1009900009FAAAF1010A0AEA020A0AFA0CFA4FF065
:1009A000010B0BFA0CFBABF1010B0BEA030B4AEA50
:1009B0000B042146404603F027FEBDE8F09F0000EF
:1009C00000BF00F00702064B19684FF6FF031940FD
:1009D000044B0B4343EA0221014B196000BF7047EF
:1009E0000CED00E00000FA0570B5044615480068FB
:1009F000C0F3800048B91348006800F00700A04227
:100A000001D0012070BD0020FCE70E48006820F0F6
:100A1000070020430B490860FFF714FF054607E075
:100A2000FFF710FF401BB0F57A7F01D90120E9E7FD
:100A3000044808380068C0F340300028F0D0002097
:100A4000E0E700000C4802582DE9F84304460E4642
:100A500015469846FFF7F6FE8146B06900B100BF23
:100A6000F06900B100BF306A00B100BF00BF94F868
:100A70004000012802D10220BDE8F883012084F85B
:100A8000400000BF94F8410001283AD10020606482
:100A9000422084F841004B46002220212046CDF818
:100AA000008003F047F9074657BB28682168886231
:100AB000686821684862A8682168C8622068006880
:100AC00020F44000296941F480010843216808604E
:100AD000E868B0624FF000623146204602F051FFF4
:100AE0004B46012208212046CDF8008003F022F970
:100AF00007462FB908202168C860012084F841000A
:100B000000E0022700BF002084F8400000BF384604
:100B1000B2E72DE9F84304460D461746FFF792FE6B
:100B20008046A86900B100BFE86900B100BF286A2B
:100B300000B100BF00BF94F84000012802D102209C
:100B4000BDE8F883012084F8400000BF94F841001C
:100B5000012828D100206064022084F84100434627
:100B6000002220212046009703F0E4F80646DEB973
:100B700000222946204602F004FF686A78B94346FD
:100B8000012202212046009703F0D4F806465EB900
:100B900002202168C860012084F8410004E001209F
:100BA00084F8410000E0022600BF002084F84000E5
:100BB00000BF3046C4E70000F8B50446FFF742FE28
:100BC00006460CB90120F8BD206A402800D000BFBD
:100BD00094F8410038B9204600F09CF841F2883181
:100BE000204600F085F92068006820F4F851A068DC
:100BF000401E41EA002021680860A06C33460022B4
:100C000020210090204603F095F8054635BB217958
:100C1000E06840EA0160E1690843216A084321680D
:100C200009680F4A1140084321680860208A6169F9
:100C300041EA0040A169084321684968094A114016
:100C40000843216848602068006840F0010021687E
:100C5000086000206064012084F841002846B2E763
:100C60002FFFFF00FEF8E0FF2DE9F84304460D4694
:100C70001646FFF7E7FD8046A86900B100BFE869A6
:100C800000B100BF286A00B100BF00BF94F8400067
:100C9000012802D10220BDE8F883012084F8400039
:100CA00000BF94F8410001282CD10020606482200C
:100CB00084F84100A06C4346002220210090204689
:100CC00003F038F80746F7B92068006820F00800FC
:100CD0007168084321680860706808280BD1306883
:100CE0002168086310202168C8602068006840F40B
:100CF0008010216808604FF040622946204602F0CB
:100D000040FE00E0022700BF002084F8400000BF42
:100D10003846C0E710B5B8B00446142132A8FFF732
:100D20002FFBC02102A8FFF72BFB34492068884223
:100D300062D14FF000710020CDE90210159002A899
:100D400000F0D8F808B1FFF7CFFB00BF2C480068CF
:100D500040F480402A4908600846006800F480405A
:100D6000019000BF00BF00BF25480C30006840F074
:100D7000400023490C3108600846006800F040003C
:100D8000019000BF00BF00BF0846006840F020008F
:100D900008600846006800F02000019000BF00BF16
:100DA0004020329002203390002034900320359070
:100DB0000A20369032A91348FFF730FC4FF49860B0
:100DC0003290022033900020349003203590092087
:100DD000369032A90C48FFF721FC4FF44070329056
:100DE0000220339000203490032035900A20369062
:100DF00032A90548FFF712FC38B010BD0050005270
:100E0000D444025800180258001402582DE9F84F33
:100E100004460E4617460025FFF714FD804620685D
:100E2000D0F81890206800F1200A00BF94F8400024
:100E3000012802D10220BDE8F88F012084F840008B
:100E400000BF94F8410001284AD100206064002EC0
:100E500040D0222084F8410020680069401CA06333
:100E600020680069401C606326632068406920F0A8
:100E7000406040F08060216848612068C0F81890A8
:100E800013E04346012206212046009702F052FF5C
:100E9000054605B10CE09AF80000216B0870206B44
:100EA000401C2063A06B401EA063A06B0028E8D10B
:100EB00000BF5DB94346012202212046009702F09F
:100EC00039FF054615B902202168C860012084F861
:100ED000410006E0606C40F008006064012500E01D
:100EE000022500BF002084F8400000BF2846A2E78A
:100EF000816470472DE9F04104460025A8464FF073
:100F00000062D4E9001011400020134659404040CF
:100F1000014331D1A06E48B1B0F5801F0DD0B0F5BE
:100F2000001F11D0B0F5401F16D114E0F948006839
:100F300040F40030F749086010E0022104F1080095
:100F400002F01EFF054609E0022104F1280002F02C
:100F5000C9FF054602E001E0012500BF00BF55B909
:100F6000EC482430006820F44010A16E0843E949A1
:100F70002431086000E0A8464FF48073D4E90010E3
:100F8000194000205940404001432ED1A06D052852
:100F90001BD2DFE800F0030A11181900DD480068D1
:100FA00040F40030DB49086011E0002104F1080042
:100FB00002F0E6FE05460AE0002104F1280002F0F6
:100FC00091FF054603E002E001E0012500BF00BFFC
:100FD00055B9D0482430006820F00700A16D0843BF
:100FE000CC492431086000E0A8464FF40073D4E9EE
:100FF00000101940002059404040014334D1E06DB9
:10100000802818D003DC40B140281DD10CE0C02856
:1010100018D0B0F5807F17D115E0BE48006840F4C5
:101020000030BC49086011E0002104F1080002F022
:10103000A7FE05460AE0002104F1280002F052FF55
:10104000054603E002E001E0012500BF00BF55B9FD
:10105000B0482430006820F4E070E16D0843AD49E9
:101060002431086000E0A8464FF48063D4E9001002
:101070001940002059404040014339D1D4F8A8001C
:10108000B0F5800F1AD004DC50B1B0F5001F1ED1AE
:101090000DE0B0F5C00F18D0B0F5000F17D115E076
:1010A0009C48006840F400309A49086011E0002133
:1010B00004F1080002F064FE05460AE0002104F194
:1010C000280002F00FFF054603E002E001E00125E1
:1010D00000BF00BF5DB98F482C30006820F460006D
:1010E000D4F8A81008438B492C31086000E0A846CA
:1010F0004FF40062D4E9001011400020134659401B
:101100004040014339D1D4F8AC00B0F1007F1AD08F
:1011100004DC50B1B0F1807F1ED10DE0B0F1407F12
:1011200018D0B0F1806F17D115E07A48006840F40C
:1011300000307849086011E0002104F1080002F055
:101140001FFE05460AE0002104F1280002F0CAFE55
:10115000054603E002E001E0012500BF00BF5DB9E4
:101160006C482C30006820F0E060D4F8AC100843E4
:1011700068492C31086000E0A8464FF00073D4E9BC
:1011800000011840002158404940084328D1E06C34
:10119000A8B1102804D0202809D0302810D10DE0A3
:1011A0005C48006840F400305A4908600AE00221B7
:1011B00004F1080002F0E4FD054603E002E001E06E
:1011C000012500BF00BF55B952482030006820F00B
:1011D0003000E16C08434F492031086000E0A84628
:1011E0004FF48053D4E9001019400020594040408A
:1011F000014337D1206EB0F5005F1AD004DC50B146
:10120000B0F5805F1ED10DE0B0F5405F18D0B0F5AD
:10121000804F17D115E03F48006840F400303D4949
:10122000086011E0002104F1080002F0A9FD054664
:101230000AE0002104F1280002F054FE054603E014
:1012400002E001E0012500BF00BF55B9314824305C
:10125000006820F4E040216E08432E4924310860E4
:1012600000E0A8464FF40053D4E9001019400020D4
:1012700059404040014335D1606EB0F5403F1ED02B
:1012800007DC68B1B0F5803F0BD0B0F5003F19D155
:101290000EE0B0F5802F13D0B0F5A02F12D110E0E2
:1012A00012E0012104F1080002F06AFD05460BE09E
:1012B000012104F1280002F015FE054604E003E0D8
:1012C00002E001E0012500BF00BF55B911482430FC
:1012D000006820F4E020616E08430E492431086064
:1012E00000E0A8464FF48043D4E9000118400021F3
:1012F00058404940084337D1D4F8B000B0F1405FBE
:1013000020D009DC78B1B0F1805F0DD0B0F1005F82
:101310001BD110E02C440258B0F1804F13D0B0F133
:10132000A04F12D110E012E0012104F1080002F0F8
:1013300027FD05460BE0012104F1280002F0D2FD53
:10134000054604E003E002E001E0012500BF00BF24
:101350004DB9FE48006820F0E040D4F8B0100843D2
:10136000FA49086000E0A8464FF40042D4E90010B2
:1013700011400020134659404040014329D1206FBD
:10138000B0B1B0F1805F03D0B0F1005F11D108E0DF
:10139000EE482C38006840F40030EC492C390860E5
:1013A00009E0012104F1080002F0EAFC054602E030
:1013B00001E0012500BF00BF55B9E44808380068C6
:1013C00020F04050216F0843E0490839086000E0F0
:1013D000A8464FF08072D4E9001011400020134657
:1013E0005940404001432AD1A06CB8B1012804D033
:1013F00002280BD0032812D10FE0D4482C38006803
:1014000040F40030D1492C3908600AE0022104F18F
:10141000080002F0B5FC054603E002E001E001250A
:1014200000BF00BF55B9C9480C38006820F0030060
:10143000A16C0843C5490C39086000E0A8464FF488
:101440008002D4E900011040002113465840494071
:1014500008437DD1BE48006840F48070BC490860F4
:10146000FFF7F0F9064606E0FFF7ECF9801B642869
:1014700001D9032505E0B648006800F48070002813
:10148000F2D000BF85BBB1481830006800F440704E
:10149000B4F8B41001F44071884213D0AB4818304E
:1014A000006820F44077A9481830006840F4803084
:1014B000A649183108600846006820F480300860AA
:1014C00008460760D4F8B400B0F5807F15D1FFF767
:1014D000B9F9064609E0FFF7B5F9801B41F28831FA
:1014E000884202D9032507E038E0984818300068A0
:1014F000C0F340000028EED000BF55BB00BFB4F8D9
:10150000B40000F44070B0F5407F0ED18F484838E9
:10151000006820F47C518F4AD4F8B400104041EAAE
:1015200010108A494839086007E088484838006840
:1015300020F47C5085494839086084481830006898
:10154000B4F8B410C1F30B0108438049183101E02D
:1015500005E001E0086002E0A84600E0A84601229C
:10156000D4E9000110400021134658404940084387
:1015700030D1E06F18281AD005DC48B1082808D00F
:10158000102817D10CE0202812D0282812D110E002
:1015900012E0012104F1080002F0F2FB05460BE025
:1015A000012104F1280002F09DFC054604E003E05F
:1015B00002E001E0012500BF00BF55B96348001FEC
:1015C000006820F03800E16F08436049091F086097
:1015D00000E0A8460222D4E9000110400021134691
:1015E00058404940084329D1A06F062816D2DFE8A9
:1015F00000F003040B12131412E0012104F108009F
:1016000002F0BEFB05460BE0012104F1280002F0C8
:1016100069FC054604E003E002E001E0012500BFAB
:1016200000BF55B94948001F006820F00700A16FAE
:1016300008434649091F086000E0A8460423D4E98E
:1016400000101940002059404040014329D1D4F8EE
:101650009400062816D2DFE800F003040B121314DE
:1016600012E0012104F1080002F08AFB05460BE0BC
:10167000012104F1280002F035FC054604E003E0F6
:1016800002E001E0012500BF00BF4DB92F4800680E
:1016900020F00700D4F8941008432C49086000E0BB
:1016A000A8462023D4E900011840002158404940B1
:1016B000084337D1D4F89000B0F1405F1ED007DC6A
:1016C00068B1B0F1805F0BD0B0F1005F19D10EE0CE
:1016D000B0F1804F13D0B0F1A04F12D110E012E062
:1016E000002104F1080002F04BFB05460BE002214B
:1016F00004F1280002F0F6FB054604E003E002E0F6
:1017000001E0012500BF00BF5DB91048001F00685F
:1017100020F0E040D4F8901008430C49091F0860FD
:1017200000E0A8464023D4E90010194000205940A9
:10173000404001433CD1D4F89C00B0F5406F25D027
:101740000EDCA0B1B0F5806F12D005E0584402580D
:1017500000480258FFFCFF0FB0F5006F19D10EE0F2
:10176000B0F5805F13D0B0F5A05F12D110E012E0A9
:10177000002104F1080002F003FB05460BE0022102
:1017800004F1280002F0AEFB054604E003E002E0AD
:1017900001E0012500BF00BF4DB9FE48006820F4FC
:1017A000E050D4F89C100843FA49086000E0A846CD
:1017B0008023D4E9001019400020594040400143E3
:1017C00035D1D4F8A000B0F5C04F1ED007DC68B109
:1017D000B0F5005F0BD0B0F5804F19D10EE0B0F539
:1017E000004F13D0B0F5204F12D110E012E00021CD
:1017F00004F1080002F0C4FA05460BE0022104F1EE
:10180000280002F06FFB054604E003E002E001E07F
:10181000012500BF00BF4DB9DE48006820F46040DC
:10182000D4F8A0100843DB49086000E0A84608236C
:10183000D4E900101940002059404040014317D11D
:10184000D4F88400B0F5805F07D1022104F12800AC
:1018500002F048FB08B14FF00108CE48001F0068B5
:1018600020F44050D4F884100843CA49091F086086
:101870001023D4E900101940002059404040014392
:1018800015D1D4F89800B0F5807F07D1022104F17A
:10189000280002F027FB08B14FF00108BD4800689E
:1018A00020F44070D4F898100843BA4908604FF407
:1018B0000022D4E90001104000211346584049405D
:1018C000084327D1D4F8A40030B1B0F5803F0AD046
:1018D000B0F5003F0FD10DE0002104F1080002F047
:1018E0004FFA054609E0022104F1280002F0FAFA55
:1018F000054602E001E0012500BF00BF4DB9A54843
:10190000006820F44030D4F8A4100843A1490860CE
:1019100000E0A8464FF48023D4E9000118400021DC
:101920005840494008432DD1D4F88800B0F5801FB5
:1019300006D0B0F5001F0CD0B0F5401F11D10FE05C
:1019400094482C38006840F4003092492C390860E3
:1019500009E0012104F1280002F0C4FA054602E082
:1019600001E0012500BF00BF5DB98A48001F006883
:1019700020F44010D4F8881008438649091F0860F5
:1019800000E0A8464FF48032D4E900011040002165
:10199000134658404940084325D1206D18B1B0F591
:1019A000803F10D108E07B482C38006840F40030BC
:1019B00078492C39086008E0022104F1080002F09F
:1019C000DFF9054601E0012500BF00BF55B97148A8
:1019D0000C38006820F48030216D08436D490C39C3
:1019E000086000E0A8464FF00052D4E90010114012
:1019F0000020134659404040014307D1022104F121
:101A0000280002F06FFA08B14FF001084FF40033DC
:101A1000D4E900011840002158404940084329D129
:101A2000D4F88000A0B1B0F5807F06D0B0F5007F7B
:101A30000CD0B0F5407F0CD109E056482C38006836
:101A400040F4003053492C39086004E003E002E020
:101A500001E0012500BF00BF5DB94E48001F0068CE
:101A600020F44070D4F8801008434A49091F0860E8
:101A700000E0A8464FF48012D4E900101140002085
:101A8000134659404040014309D142480838006894
:101A900020F00040616F08433E49083908604FF06C
:101AA0008052D4E9001011400020134659404040B4
:101AB00001430AD137484838006820F48040D4F800
:101AC000B81008433349483908604FF40012D4E98C
:101AD000001011400020134659404040014309D1F5
:101AE0002C480838006820F08070E16E08432949CE
:101AF000083908604FF08042D4E9001011400020FE
:101B0000134659404040014311D100BF2148483895
:101B1000006820F400401F49483908600846006802
:101B2000D4F8BC1008431B494839086000BF4FF087
:101B30000042D4E9001011400020134659404040B3
:101B4000014309D113480C38006820F04050616D02
:101B5000084310490C3908604FF40002D4E9001022
:101B60001140002013465940404001430AD1094822
:101B7000001F006820F44000D4F88C100843054989
:101B8000091F0860012300216068184001224940B4
:101B9000504001E058440258014306D104F10800C6
:101BA00002F0EEF8054605B1A84602220021606861
:101BB000104049405040014307D1012104F1080081
:101BC00002F0DEF8054605B1A8460423002061684E
:101BD0001940042240405140084307D1022104F13A
:101BE000080002F0CDF8054605B1A84608230021FB
:101BF00060681840082249405040014306D104F172
:101C0000280002F06FF9054605B1A8461022002110
:101C10006068104049405040014307D1012104F160
:101C2000280002F05FF9054605B1A84620220020F1
:101C30006168114040405140084307D1022104F13E
:101C4000280002F04FF9054605B1A846B8F1000F8B
:101C500002D10020BDE8F0810120FBE72DE9F04131
:101C600004460D4614B90120BDE8F081BD48006866
:101C700000F00F00A8420ED2BA48006820F00F0012
:101C80002843B84908600846006800F00F00A842E1
:101C900001D00120E8E7207800F0040004280ED1EC
:101CA000B1492069096801F07001884207D9AE483E
:101CB000006820F0700021690843AB490860207873
:101CC00000F00800082811D1A749091D60690968BA
:101CD00001F07001884209D9A348001D006820F076
:101CE000700061690843A049091D0860207800F070
:101CF0001000102811D19C49091DA069096801F440
:101D0000E061884209D99848001D006820F4E0602D
:101D1000A16908439449091D0860207800F020005B
:101D2000202811D190490831E069096801F070015B
:101D3000884209D98C480830006820F07000E169B9
:101D40000843894908310860207800F00200022821
:101D50000ED18549E068096801F00F01884207D972
:101D60008148006820F00F00E16808437E49086060
:101D7000207800F00100002850D07B48006820F453
:101D80007060A1680843784908606068022807D13C
:101D9000754818380068C0F34040F8B9012063E77F
:101DA0006068032807D1704818380068C0F34060A5
:101DB000A0B9012058E76068012807D16A4818389F
:101DC0000068C0F3002048B901204DE76648183884
:101DD0000068C0F3800008B9012045E76248083870
:101DE000006820F00700616808435F49083908600F
:101DF000FEF728FD064608E0FEF724FD801B41F2B1
:101E00008831884201D903202EE7574808380068F6
:101E100000F038006168B0EBC10FEDD1207800F020
:101E2000020002280ED15049E068096801F00F0154
:101E3000884207D24C48006820F00F00E168084350
:101E4000494908604748006800F00F00A8420ED9D1
:101E50004448006820F00F002843424908600846C3
:101E6000006800F00F00A84201D00120FCE62078B5
:101E700000F0040004280ED13B492069096801F0F4
:101E80007001884207D23848006820F0700021694C
:101E9000084335490860207800F00800082811D16F
:101EA0003149091D6069096801F07001884209D251
:101EB0002D48001D006820F07000616908432A4920
:101EC000091D0860207800F01000102811D1264963
:101ED000091DA069096801F4E061884209D222481D
:101EE000001D006820F4E060A16908431E49091D37
:101EF0000860207800F02000202811D11A4908310C
:101F0000E069096801F07001884209D2164808307A
:101F1000006820F07000E169084313490831086047
:101F200000F02CF810490968C1F303210F4A515CF5
:101F300001F01F0120FA01F70B48006800F00F00C4
:101F40001146085C00F01F0027FA00F008490860FD
:101F50000848076008480068FEF7B6FC804640461F
:101F600082E600000020005218440258FA47000898
:101F7000100000240C00002404000024F0B5824E60
:101F8000366806F0380636B1082E15D0102E15D05A
:101F9000182E7DD114E07C4E103E3668C6F34016F4
:101FA00046B1794E103E3668C6F3C107774E26FA21
:101FB00007F000E07548E5E07548E3E07548E1E0CA
:101FC000714E1836366806F003046F4E18363668C0
:101FD000C6F305116C4E1C36366806F001056A4ED4
:101FE00024363668C6F3CC0616FB05F601EE106AF9
:101FF000B8EE410A002971D024B1012C50D0022C36
:102000006DD16DE0604E103E3668C6F340163EB3AB
:102010005D4E103E3668C6F3C1075C4E26FA07F3E4
:1020200001EE103AF8EE411A01EE101AB8EE411A1C
:1020300081EE812A9FED581AC0EE011A524E2036C9
:102040003668C6F3080601EE106AB8EE411A31EEA2
:10205000811AF7EE001A31EE211A62EE010A1EE033
:1020600001EE101AB8EE411ADFED4C1A81EE812A0A
:102070009FED491AC0EE011A434E20363668C6F36A
:10208000080601EE106AB8EE411A31EE811A00E03E
:1020900076E0F7EE001A31EE211A62EE010A5BE0FB
:1020A00001EE101AB8EE411A9FED3D2AC2EE011A58
:1020B0009FED391A80EE012A334E20363668C6F37A
:1020C000080601EE106AB8EE411A32EE011AB7EEB8
:1020D000002A31EE021A61EE810A3DE04EE01DE079
:1020E00001EE101AB8EE411ADFED2E1A81EE812AA8
:1020F0009FED291AC0EE011A234E20363668C6F32A
:10210000080601EE106AB8EE411A31EE811AF7EEB8
:10211000001A31EE211A62EE010A1DE001EE101ADA
:10212000B8EE411A9FED1E2AC2EE011A9FED1A1A4F
:1021300080EE012A144E20363668C6F3080601EEFA
:10214000106AB8EE411A32EE011AB7EE002A31EEEB
:10215000021A61EE810A00BF00BF0B4E20363668BE
:10216000C6F34626721C01EE102AB8EE411AC0EEE4
:10217000811ABCEEE11A11EE100A00E0002001E025
:10218000034800BF00BFF0BD104402580090D003C8
:1021900000093D0040787D01000000460024744C99
:1021A0000024744A20BCBE4B2DE9F047044614B904
:1021B0000120BDE8F087207800F00100002870D0F1
:1021C000FA48006800F03808F8481830D0F8009055
:1021D000B8F1100F06D0B8F1180F0FD109F00300B5
:1021E00002280BD1F14810380068C0F340400028A5
:1021F0006AD06068002867D10120DAE700BF606814
:10220000B0F5803F08D1E9481038006840F48030CC
:10221000E649103908602EE0606868B9E348103874
:10222000006820F48030E1491039086008460068F1
:1022300020F4802008601EE06068B0F5A02F0DD16A
:10224000DA481038006840F48020D8491039086016
:102250000846006840F4803008600CE0D34810382D
:10226000006820F48030D1491039086008460068C1
:1022700020F48020086000BF606898B1FEF7E2FAA1
:10228000054606E0FEF7DEFA401B642801D903206C
:102290008FE7C64810380068C0F340400028F1D0EE
:1022A00012E012E0FEF7CEFA054606E0FEF7CAFAA3
:1022B000401B642801D903207BE7BC481038006824
:1022C000C0F340400028F1D100BF207800F00200A8
:1022D000022874D1B548006800F03808B3481830B7
:1022E000D0F80090B8F1000F05D0B8F1180F56D112
:1022F00009F00300D0BBAD4810380068C0F380007F
:1023000018B1E06808B9012053E7A8481038006800
:1023100020F01900E1680843A44910390860FEF76D
:1023200091FA054606E0FEF78DFA401B022801D916
:1023300003203EE79D4810380068C0F38000002865
:10234000F1D000BFFEF778FA41F2030188421AD8B3
:10235000206940280BD195480C38006820F47C3067
:1023600040F4003091490C39086017E017E08F48BD
:102370000C38006820F47C30216940EA01308B4938
:102380000C3908600AE089480C38006820F0FE40EB
:10239000217C40EA016085490C39086066E0E0680C
:1023A00088B382481038006820F01900E1680843BB
:1023B0007E4910390860FEF745FA054607E056E009
:1023C000FEF740FA401B022801D90320F1E67748C6
:1023D00010380068C0F380000028F1D000BFFEF77D
:1023E0002BFA41F2030188421AD8206940280BD108
:1023F0006E480C38006820F47C3040F400306B49A3
:102400000C39086017E017E068480C38006820F4C1
:102410007C30216940EA013064490C3908600AE0E7
:1024200062480C38006820F0FE40217C40EA0160E0
:102430005E490C39086019E05C481038006820F0EB
:1024400001005A4910390860FEF7FCF9054606E01C
:10245000FEF7F8F9401B022801D90320A9E65348EA
:1024600010380068C0F380000028F1D100BF207848
:1024700000F0100010287CD14C48006800F03808AB
:102480004A481830D0F80090B8F1080F06D0B8F1DB
:10249000180F3DD109F00300012839D14348103805
:1024A0000068C0F3002020B1E069802801D001203D
:1024B0007FE600BFFEF7C0F941F2030188421AD857
:1024C000206A20280AD139480C38006820F0F840EA
:1024D00040F0804035490C39086018E033480C382A
:1024E000006820F0F84094F8201040EA81602F49FD
:1024F0000C3908600BE02D48001F006820F07C506C
:1025000094F8201040EA01602849091F086066E03D
:10251000E06978B325481038006840F0800023490E
:1025200010390860FEF78EF9054606E0FEF78AF9D5
:10253000401B022801D903203BE61C4810380068E4
:10254000C0F300200028F1D000BFFEF775F941F27A
:10255000030188421CD8206A20280CD113480C386B
:10256000006820F0F84040F0804010490C390860C5
:102570001AE035E01CE00D480C38006820F0F84007
:1025800094F8201040EA816008490C3908600BE09B
:102590000648001F006820F07C5094F8201040EAA4
:1025A00001600249091F086019E000001044025848
:1025B000FA48006820F08000F8490860FEF742F908
:1025C000054606E0FEF73EF9401B022801D903202C
:1025D000EFE5F2480068C0F300200028F2D100BF08
:1025E000207800F00800082836D16069D0B1EB48A7
:1025F0007430006840F00100E84974310860FEF76B
:1026000021F9054606E0FEF71DF9401B022801D915
:102610000320CEE5E14874300068C0F34000002894
:10262000F1D019E0DD487430006820F00100DB498A
:1026300074310860FEF706F9054606E0FEF702F978
:10264000401B022801D90320B3E5D4487430006848
:10265000C0F340000028F1D1207800F020002028AD
:1026600030D1A069B8B1CD48006840F48050CB4962
:102670000860FEF7E7F8054606E0FEF7E3F8401BC2
:10268000022801D9032094E5C4480068C0F3403013
:102690000028F2D016E0C148006820F48050BF49FD
:1026A0000860FEF7CFF8054606E0FEF7CBF8401BC2
:1026B000022801D903207CE5B8480068C0F3403007
:1026C0000028F2D1207800F0040004287DD1B4481D
:1026D000006840F48070B2490860FEF7B3F8054620
:1026E00006E0FEF7AFF8401B642801D9032060E53F
:1026F000AB48006800F480700028F2D000BFA068EA
:10270000012808D1A5487030006840F00100A349B5
:10271000703108602DE0A06868B9A048703000688A
:1027200020F001009D49703108600846006820F0E3
:10273000040008601DE0A06805280DD1974870309E
:10274000006840F004009549703108600846006850
:1027500040F0010008600CE090487030006820F004
:1027600001008E49703108600846006820F00400BE
:10277000086000BFA068A0B1FEF764F8054608E055
:10278000FEF760F8401B41F28831884201D90320EE
:102790000FE5824870300068C0F340000028EFD099
:1027A00013E0FEF74FF8054608E0FEF74BF8401B34
:1027B00041F28831884201D90320FAE47748703029
:1027C0000068C0F340000028EFD1606A00287DD087
:1027D00072481030006800F03800182877D0606A1E
:1027E000022875D16D48006820F080706B49086040
:1027F000FEF728F8054606E0FEF724F8401B0228FD
:1028000001D90320D5E465480068C0F34060002882
:10281000F2D100BFD4E90A1041EA00105F49283123
:10282000096840F2F332914308435C49283108605B
:10283000208E401EC0F30800616B491E4FF47E429B
:1028400002EA41210843218F491ED20102EA0141D7
:1028500008433C21095D491E120202EA0161084356
:102860004E493031086000BF081F006820F00100A9
:10287000091F08604948343000684FF6F8718843F2
:10288000A16C40EAC10045493431086043482C300E
:10289000006820F00C00216C084340492C3108608E
:1028A0000846006820F00200616C08433B492C3167
:1028B00008600846006840F48030086008460068F8
:1028C00040F4003008600846006802E093E038E019
:1028D0001FE040F4802008600846006840F00100D6
:1028E00008602E48006840F080702C490860FDF7B1
:1028F000A9FF054606E0FDF7A5FF401B022801D908
:10290000032056E425480068C0F340600028F2D058
:1029100071E02248006820F0807020490860FDF7CF
:1029200091FF054606E0FDF78DFF401B022801D907
:1029300003203EE419480068C0F340600028F2D14B
:1029400059E0164828300768144830300668606A35
:10295000012821D007F00301A06A81421CD1C7F3EE
:102960000511E06A884217D1C6F30801206B401EAA
:10297000814211D1606B401EC6F3462188420BD1C3
:10298000A06B401EC6F30641884205D1E06B401E95
:10299000C6F30661884205D001200AE400440258CB
:1029A0000048025815480068C0F3CC07A06CB84234
:1029B00021D012480838006820F001000F4908397A
:1029C0000860FDF73FFF054600BFFDF73BFF401BDA
:1029D000FBD00A4800684FF6F8718843A16C40EAC2
:1029E000C1000649086005480838006840F0010049
:1029F00002490839086000204AE4000034440258C3
:102A000070B504460CB9012070BD606A00B900BF02
:102A10000021A1626349206888420CD06249206885
:102A2000884208D061492068884204D0E0680F28B5
:102A300001D90120E8E7204601F071FB054659491C
:102A40002068884209D058492068884205D05749F3
:102A50002068884201D0082D0DD85249206888424C
:102A600007D051492068884203D0504920688842E5
:102A700003D1102D01D90120C6E794F8810028B9AF
:102A8000002084F88000204600F092F8022084F8AC
:102A900081002068006820F001002168086020683B
:102AA000806800F4F816A069B0F1806F11D16068F9
:102AB000B0F5800F01D1A06B28B1606848B9A06B58
:102AC000B0F1805F05D12068006840F48050216833
:102AD0000860606800F48000B0F5800F0BD1E068FA
:102AE000072808D32068006820F48070216D08430F
:102AF0002168086005E02068006820F48070216883
:102B00000860A16AE06908433043E16B0843E1686B
:102B1000084321688860616A606B0843A16B0843C1
:102B2000A16908432169084361690843216A084390
:102B300061680843E16C0843A1680843A16C08433D
:102B4000A16D08432168C860606878B92068806812
:102B500020F4C05040F400602168886020688068DC
:102B600020F4C06040F48060216888602068006DB7
:102B700020F0010021680865606800F48000B0F56D
:102B8000800F07D12068C06820F00040616D0843C5
:102B90002168C8600020C4F88400012084F8810006
:102BA000002031E70030014000380040003C004088
:102BB00010B5B8B00446142132A8FDF7E1FBC021DE
:102BC00002A8FDF7DDFB2D492068884254D14FF45F
:102BD00080410020CDE902102E9002A8FEF78AF96C
:102BE00008B1FDF781FC00BF2548006840F02000D7
:102BF000234908600846006800F02000019000BFEB
:102C000000BF00BF1E481438006840F001001C4996
:102C1000143908600846006800F00100019000BF08
:102C200000BF00BF0846006840F04000086008464A
:102C3000006800F04000019000BF00BF4FF400406A
:102C400032900220339000203490032035900720EA
:102C5000369032A90B48FDF7E1FC4FF4C0403290AA
:102C600002203390002034900320359005203690C8
:102C700032A90548FDF7D2FC38B010BD0014005849
:102C8000F444025800000258001802582DE9F84395
:102C90000446884616461D46206800F12009FDF7C7
:102CA000D1FD074694F88100012802D00220BDE83A
:102CB000F883B8F1000F00D00EB90120F7E700BF8C
:102CC00094F88000012801D10220F0E7012084F867
:102CD000800000BF03205C3484F825000020A0623F
:102CE000C4F80080A680E680A060A081E081A06199
:102CF00060615C3CA068B0F5C02F06D12068006818
:102D000040F400602168086007E02068C06820F493
:102D1000C02040F400302168C860206840686FF32C
:102D20000F003043216848602068006840F00100CF
:102D3000216808606068B0F5800F05D120680068E0
:102D400040F4007021680860E0680F2833D92DE056
:102D50002068406900F0020002280CD1E06D006894
:102D600021680862E06D001DE065B4F86200401E55
:102D7000A4F862001AE0FDF765FDC01BA84201D36C
:102D8000681C00B995B9204601F05EF9D4F88400BA
:102D900040F48070C4F88400012084F8810000BFF2
:102DA000002084F8800000BF032080E7B4F86200B0
:102DB0000028CDD1A4E0E068072846D940E020688B
:102DC000406900F0020002281FD1B4F86200012817
:102DD0000ED9E06B60B1E06D006821680862E06DBB
:102DE000001DE065B4F86200801EA4F8620027E0D0
:102DF000E06D0088A9F80000E06D801CE065B4F883
:102E00006200401EA4F862001AE0FDF71BFDC01B23
:102E1000A84201D3681C00B995B9204601F014F905
:102E2000D4F8840040F48070C4F88400012084F851
:102E3000810000BF002084F8800000BF032036E737
:102E4000B4F862000028BAD15AE055E02068406921
:102E500000F00200022834D1B4F8620003280FD930
:102E6000E06B40280CD9E06D006821680862E06DD5
:102E7000001DE065B4F86200001FA4F862003BE0AA
:102E8000B4F8620001280ED9E06B60B1E06D0088F3
:102E9000A9F80000E06D801CE065B4F86200801EB7
:102EA000A4F8620028E0E06D0078216881F8200035
:102EB000E06D401CE065B4F86200401EA4F86200BA
:102EC0001AE0FDF7BFFCC01BA84201D3681C00B983
:102ED00095B9204601F0B8F8D4F8840040F4807029
:102EE000C4F88400012084F8810000BF002084F829
:102EF000800000BF0320DAE6B4F862000028A5D104
:102F00002B46002208212046009701F0EDF928B158
:102F1000D4F8840040F02000C4F88400204601F07A
:102F200093F8012084F8810000BF002084F880001D
:102F300000BFD4F8840008B10120B8E60020B6E64E
:102F400070B504462546681EB0F1807F01D301208C
:102F50000FE0681E4FF0E02148610F214FF0FF3075
:102F600001F052FB00204FF0E0218861072008614A
:102F7000002070BD00BFFEE710B514488089401ED8
:102F800083B212484089401E82B20021084600F0F8
:102F9000A1FA012211030E48FDF748FC0F210D484C
:102FA000C160FFF72DFD09484089084B9B8900FB54
:102FB00003F20648808881B2064800F09CF9072198
:102FC0000448C160FFF71CFD10BD00007409002417
:102FD00000180258EC0000242DE9F05F07468846EF
:102FE00014460025A9460026AA46A4F12000C4B232
:102FF00000BF34E02B48006800682A490968098945
:1030000004FB015110F801B04FF0000921E00BF072
:10301000010028B124480088244921F8160004E062
:1030200021488088214921F816004FEA6B0B701C5B
:1030300086B20AF101001FFA80FA1A4800688088F7
:10304000504502D14FF0000A06E009F101001FFAD5
:1030500080F9B9F1080FDADB00BF681C85B21148AE
:1030600000680089A842C5DC0E480068C08840445A
:10307000401E83B20B48006880883844401E82B2EC
:103080004146384600F026FA064800688088054A1E
:103090001268D288504381B2044800F015FBBDE8A5
:1030A000F09F00009800002474090024740100249B
:1030B0002DE9F04105460E46144600F0A5F80746F6
:1030C0003946204601F034FA804643463A463146B6
:1030D0002846FDF7BBF9BDE8F08100002DE9F04777
:1030E00005468846144600F08FF80646A94641E09A
:1030F00020787F2818DC22480068808828442149ED
:103100004989884204DD4D4608EB06001FFA80F825
:10311000227841462846FFF75FFF194800688088FB
:10312000284485B2641C25E0A819164949898842BB
:1031300004DD4D4608EB06001FFA80F822464146A2
:103140002846FFF7B5FFA81985B2277807F0E000F9
:10315000C02801D1A41C0CE007F0F000E02801D148
:10316000E41C06E007F0F800F02801D1241D00E07F
:10317000641C00BF20780028BAD1BDE8F0870000A9
:10318000980000247409002400B587B0142102A817
:10319000FDF7F6F800BF1948006840F080001749B5
:1031A00008600846006800F08000019000BF00BF82
:1031B00000BF0846006840F040000860084600680C
:1031C00000F04000019000BF00BF402002900120AD
:1031D000039000200490059002A90948FDF71EFA0B
:1031E0004FF480500290012003900020049005903D
:1031F00002A90448FDF712FA07B000BDE0440258E6
:10320000001C0258001802580448006818B103480E
:103210000068007970470C20FCE700009C00002447
:10322000026851690268926942F0080203689A6173
:103230000268926942F0100203689A61026812689B
:1032400022F0010203681A600268126940F26F33CB
:103250009A4303681A610268926822F44042036844
:103260009A6090F88120042A0ED001F020025AB111
:10327000D0F8842042F08002C0F88420026892696D
:1032800042F0200203689A6190F88120032A0ED050
:1032900001F040025AB1D0F8842042F00402C0F894
:1032A00084200268926942F0400203689A6101F446
:1032B00000725AB1D0F8842042F00102C0F8842094
:1032C0000268926942F4007203689A6101F48072A4
:1032D0005AB1D0F8842042F00802C0F88420026875
:1032E000926942F4807203689A610022A0F8622019
:1032F000A0F86A2070472DE9F84F044688469146A9
:103300004FF47A754FF0000B00BF94F8800001284D
:1033100002D10220BDE8F88F012084F8800000BFB0
:10332000FDF790FA064694F88100012808D04FF086
:10333000020B00BF002084F8800000BF5846E9E778
:10334000B9F1000F08D14FF0010B00BF002084F845
:10335000800000BF5846DDE703206434607700201A
:1033600020624F4648EA084A2060A080E080206141
:10337000E060643CA068B0F5C02F05D1206800680B
:1033800040F4006021680860206840686FF30F0017
:10339000216848602068006840F0010021680860EA
:1033A0006068B0F5800F05D12068006840F40070B7
:1033B000216808602FE02068406900F002000228C0
:1033C0000FD1B4F86200012806D9E06B20B1206863
:1033D000C0F820A0BF1E1EE02068A0F820807F1E3D
:1033E00019E0FDF72FFA801BA84201D3681C00B931
:1033F0008DB92046FFF714FF00BF002084F880003D
:1034000000BFD4F8840040F48070C4F88400012028
:1034100084F881007EE7002FCDD1334600224FF49F
:1034200080512046009500F034F828B1D4F884008B
:1034300040F02000C4F884002068006840F48060F8
:1034400021680860334600224FF400612046009551
:1034500000F01FF828B1D4F8840040F02000C4F830
:1034600084002046FFF7DCFE2068806940F400609D
:103470002168886100BF002084F8800000BF01201F
:1034800084F88100D4F8840008B1012042E758464E
:1034900040E72DE9F04106460C4617469846069D42
:1034A0000BE0FDF7CFF9A0EB0800A84201D3681CA0
:1034B00000B915B90320BDE8F081306840692040AB
:1034C000A04201D1012000E00020B842E9D0002054
:1034D000F1E700002DE9F04104460D4616461F466F
:1034E0002A2000F00FF91049897B214488B200F0AE
:1034F0001DF90D49897B314488B200F017F92B2062
:1035000000F000F90849C97B294488B200F00EF99F
:103510000549C97B394488B200F008F92C2000F035
:10352000F1F8BDE8F08100007409002430B50023F3
:103530000021002200F47804230A00F47C4461098D
:10354000C0F3C40243EA01041443014D6C6030BD72
:103550007409002430B500230021002200F478040F
:10356000230A00F47C446109C0F3C40243EA010465
:103570001443014D2C6030BD7409002410B504467D
:10358000244844727CB9362000F0BCF8702000F06A
:10359000E7F800201F498873C8734FF4A070488172
:1035A000F020888134E0022C0FD1362000F0AAF8F8
:1035B000002000F0D5F8002016498873C873F02069
:1035C00048814FF4A070888122E0012C0FD1362071
:1035D00000F098F8A02000F0C3F800200D4988738F
:1035E000C8734FF4A0704881F020888110E0032C4C
:1035F0000ED1362000F086F8C02000F0B1F800208F
:1036000004498873C873F02048814FF4A070888102
:1036100010BD000074090024142818D004DC0C2804
:1036200007D0102828D10BE0182817D0202823D144
:103630001BE01649164A11601649174A116022E02C
:103640001649134A11601649134A11601BE01549C7
:103650000F4A11601449104A116014E013490C4AD2
:10366000116013490C4A11600DE01249084A1160BB
:103670001149094A116006E00449054A11600549EB
:10368000054A116000BF00BF704700008C00002495
:1036900098000024200000249C00002480000024C6
:1036A0002C0000247400002438000024680000244A
:1036B000440000245C0000245000002401490872EA
:1036C000704700007409002470B504460D460122BD
:1036D00011030A48FDF7AAF80F210948C160FFF756
:1036E0008FF94FF47A732A4621460548FFF7CEFA40
:1036F00007210348C160FFF783F970BD0018025825
:10370000EC00002401B500224FF480510548FDF77C
:103710008DF84FF47A73012269460348FFF7B6FA31
:1037200008BD000000180258EC00002438B504461B
:10373000012211030848FDF779F820128DF80000E6
:10374000E0B28DF801004FF47A7302226946034813
:10375000FFF79CFA38BD000000180258EC00002466
:1037600001B5012211030548FDF760F84FF47A73A3
:10377000012269460248FFF789FA08BD001802587D
:10378000EC00002410B5044604B910BD00F036F872
:103790006008FCF72FFF00F031F86008FCF72AFF03
:1037A00000BFF2E710B5002405E0044901EBC400B6
:1037B00000F006F8641C012CF7DB10BD1400002497
:1037C00010B5044604B910BDA079012805D1A1881F
:1037D00000222068FDF72AF804E0A1880122206871
:1037E000FDF724F800BFEEE710B5044604B910BD9C
:1037F000A1882068FDF710F800BFF8E710B5002495
:1038000005E0044901EBC400FFF7EEFF641C012C46
:10381000F7DB10BD1400002400B587B0142102A806
:10382000FCF7AEFD00BF2A48006840F001002849BF
:1038300008600846006800F00100019000BF00BF6A
:1038400000BF0846006840F00400086008460068B1
:1038500000F00400019000BF00BF00BF08460068F0
:1038600040F0400008600846006800F04000019009
:1038700000BF00BF00BF0846006840F0800008603D
:103880000846006800F08000019000BF00BF00BF44
:103890000846006840F0200008600846006800F014
:1038A0002000019000BF00BF00224FF400510948E2
:1038B000FCF7BCFF4FF40050029001200390002061
:1038C0000490059002A90348FCF7A8FE07B000BDCC
:1038D000E04402580008025810B50C480C49086032
:1038E0000120486020210A4881601021C160182110
:1038F000016100214161012181610021C1610162F9
:10390000FDF75AF908B1FCF7EFFD10BD0050005269
:10391000A000002410B51648164908604FF4800036
:1039200048604111134881600721C1600021016195
:1039300041614FF0005181610021C161016241622A
:103940008162C1624FF08041416300218163202187
:10395000C1630021016441648164C1640165416502
:103960008165FFF74DF808B1FCF7BEFD10BD000002
:1039700000140058EC00002400BFFEE700BFFEE783
:10398000704710B54B6A33B1B2F1406F03D08B6A08
:103990005B1E046823618B69002B7DD00B6AF3B337
:1039A0008B680468E361CB69FBB1D1E90B34234335
:1039B0004C6B23434C6A23438C8A43EA84430C694F
:1039C00023430C6A2343CC682343CC6923438C698B
:1039D00023430C682343134304686361B2F1406FCF
:1039E00002D04B680468A361CBE0D1E90B342343D8
:1039F0004C6B23434C6A23438C8A43EA84430C690F
:103A000023430C6A2343CC6923438C6923430C680A
:103A100023431343046863610023046800E001E06A
:103A2000A361AEE0CB69EBB1D1E90B3423434C6B1E
:103A300023434C6A23438C8A43EA84430C6A23431E
:103A4000CC682343CC6923438C6923430C6823430C
:103A5000134304686361B2F1406FC5D04B680468DA
:103A6000A3618EE0D1E90B3423434C6B23434C6AB2
:103A700023438C8A43EA84430C6A2343CC6923435F
:103A80008C6923430C682343134304686361002358
:103A90000468A36175E0FFE70B6ADBB38B68046819
:103AA000E361CB69EBB1D1E90B3423434C6B234386
:103AB0004C6A23438C8A43EA84430C6923430C6A8F
:103AC0002343CC682343CC6923438C6923431343AA
:103AD00004686361B2F1406F53D04B680468A3611E
:103AE0004FE0D1E90B3423434C6B23434C6A23430F
:103AF0008C8A43EA84430C6923430C6A2343CC69D0
:103B000023438C69234313430468636100230468DF
:103B1000A36136E0FFE7CB69DBB1D1E90B34234386
:103B20004C6B23434C6A23438C8A43EA84430C6ADC
:103B30002343CC682343CC6923438C692343134339
:103B400004686361B2F1406F1BD04B680468A361E5
:103B500017E04B6AABB1D1E90B3423434C6B2343E1
:103B60004C6A23438C8A43EA84430C6A2343CC691E
:103B700023438C692343134304686361002304686F
:103B8000A36110BD00B595B04FF480700D9000207A
:103B90000E900F901290139014904FF08070109030
:103BA00000200C9005200790002001900590102027
:103BB00003908004069001200490029041F2883323
:103BC00001AA07A90448FCF73FFF18B16FF00200F3
:103BD00015B000BD0020FBE7A000002410B500F0E8
:103BE00071F800F035F804460348844201D1002002
:103BF00010BD4FF0FF30FBE71940EF0000B591B06A
:103C00004FF4807009904FF44050069000200B90C4
:103C10000E900F9010904FF440600A9080030C902B
:103C200006200890EC20039000200290019000F004
:103C300049F801AA03A90548FDF716F818B16FF075
:103C4000050011B000BD0020FBE70000A00000242B
:103C500010B590B04FF4807008904FF4405005902C
:103C600000200A900D900E900F9009904FF08070F8
:103C70000B900020079003200C909F20029041F2AF
:103C8000883202A90E48FCF744FF10B1002010B0A2
:103C900010BD41F2883201A90948FDF7B7F808B113
:103CA0000020F4E79DF8040000049DF8051040EAA8
:103CB00001209DF8061040EA01042046E7E70000D5
:103CC000A000002410B58EB04FF480700690002044
:103CD000079008900B900C900D900990059066202D
:103CE000009041F2883269461148FCF712FF044601
:103CF0001CB14FF0FF300EB010BDFFF743FF10B105
:103D00006FF00200F7E79920009041F2883269468F
:103D10000748FCF7FEFE10B14FF0FF30EBE7FFF76E
:103D200031FF10B16FF00200E5E70020E3E700008B
:103D3000A00000242DE9F04104460E46174698469F
:103D4000069D12E0681C80B1FCF77CFDA0EB08002A
:103D5000A84200D84DB9042084F84100606C40F0BE
:103D6000010060640120BDE8F08120688068304077
:103D700008B1012000E00020B842E3D10020F2E7C2
:103D80002DE9F04104460E4600275548006800F032
:103D90000300032802D10120BDE8F08150482838F3
:103DA000006820F080604E4928390860FCF74AFD21
:103DB000054606E0FCF746FD401B022801D903201A
:103DC000EAE7474828380068C0F3C0600028F1D10E
:103DD00000BF4348006820F47C30216840EA01308D
:103DE0003F490860A088401EC0F30800A168491E32
:103DF0004FF47E4202EA41210843A189491ED201C3
:103E000002EA01410843217C491E120202EA0161D3
:103E1000084333491031086000BF3148001D006875
:103E200020F0C000616908432D49091D086008465B
:103E3000006820F02000A16908432949091D086095
:103E40000846006820F0100008602548143000681B
:103E50004FF6F8718843E16940EAC1002049143106
:103E600008601F48001D006840F010001C49091D33
:103E700008602EB90846006840F40020086012E08F
:103E8000012E08D11648001D006840F48010144926
:103E9000091D086007E01248001D006840F400108A
:103EA0000F49091D08600E482838006840F08060FE
:103EB0000B4928390860FCF7C5FC054606E0FCF70D
:103EC000C1FC401B022801D9032065E704482838BB
:103ED0000068C0F3C0600028F1D038465CE70000FD
:103EE000284402582DE9F04104460E460027554863
:103EF000006800F00300032802D10120BDE8F08132
:103F000050482838006820F080504E492839086011
:103F1000FCF798FC054606E0FCF794FC401B0228E1
:103F200001D90320EAE7474828380068C0F3407009
:103F30000028F1D100BF4348006820F07C70218840
:103F400040EA01503F490860A088401EC0F30800C5
:103F5000A168491E4FF47E4202EA41210843A1892B
:103F6000491ED20102EA01410843217C491E120286
:103F700002EA0161084333491831086000BF314843
:103F8000001D006820F44060616908432D49091D47
:103F900008600846006820F40070A16908432949B8
:103FA000091D08600846006820F4807008602548F4
:103FB0001C3000684FF6F8718843E16940EAC1009F
:103FC00020491C3108601F48001D006840F48070C3
:103FD0001C49091D08602EB90846006840F480009D
:103FE000086012E0012E08D11648001D006840F458
:103FF00000001449091D086007E01248001D006810
:1040000040F080700F49091D08600E48283800688C
:1040100040F080500B4928390860FCF713FC054636
:1040200006E0FCF70FFC401B022801D9032065E7DE
:10403000044828380068C0F340700028F1D03846A2
:104040005CE70000284402580268516902689269DE
:1040500042F0080203689A610268926942F0100215
:1040600003689A610268126822F0010203681A600C
:104070000268126940F26F339A4303681A6102685A
:10408000926822F4404203689A6090F88120042AE2
:104090000ED001F020025AB1D0F8842042F0800204
:1040A000C0F884200268926942F0200203689A6195
:1040B00090F88120032A0ED001F040025AB1D0F8C6
:1040C000842042F00402C0F884200268926942F021
:1040D000400203689A6101F400725AB1D0F884205A
:1040E00042F00102C0F884200268926942F4007232
:1040F00003689A6101F480725AB1D0F8842042F0CA
:104100000802C0F884200268926942F48072036851
:104110009A610022A0F86220A0F86A20704710B5CA
:1041200001460124C86B04EB5013C868421CD01D23
:10413000C20802FB03F010BD10B5FFF725F80A20F6
:10414000FCF758FA3620FFF7DDFA0020FFF708FBEE
:104150003A20FFF7D7FA0520FFF702FBB220FFF75E
:10416000D1FA0C20FFF7FCFA0C20FFF7F9FA002037
:10417000FFF7F6FA3320FFF7F3FA3320FFF7F0FAF0
:10418000B720FFF7BFFA3520FFF7EAFABB20FFF7A9
:10419000B9FA1920FFF7E4FAC020FFF7B3FA2C2090
:1041A000FFF7DEFAC220FFF7ADFA0120FFF7D8FAD9
:1041B000C320FFF7A7FA1220FFF7D2FAC420FFF7B7
:1041C000A1FA2020FFF7CCFAC620FFF79BFA0F20B8
:1041D000FFF7C6FAD020FFF795FAA420FFF7C0FA40
:1041E000A120FFF7BDFAE020FFF78CFAD020FFF7FF
:1041F000B7FA0420FFF7B4FA0D20FFF7B1FA112047
:10420000FFF7AEFA1320FFF7ABFA2B20FFF7A8FA5F
:104210003F20FFF7A5FA5420FFF7A2FA4C20FFF742
:104220009FFA1820FFF79CFA0D20FFF799FA0B2050
:10423000FFF796FA1F20FFF793FA2320FFF790FA73
:10424000E120FFF75FFAD020FFF78AFA0420FFF79A
:1042500087FA0C20FFF784FA1120FFF781FA132068
:10426000FFF77EFA2C20FFF77BFA3F20FFF778FA62
:104270004420FFF775FA5120FFF772FA2F20FFF75D
:104280006FFA1F20FFF76CFA1F20FFF769FA202052
:10429000FFF766FA2320FFF763FA2120FFF732FACF
:1042A0001120FFF72FFA7820FCF7A4F92920FFF757
:1042B00029FA0220FFF762F90020FFF737F96FF0C3
:1042C0007F40FFF747F9FEF757FE1820FFF7A4F9E4
:1042D0000020FFF7F3F9012240210248FCF7A6FA7B
:1042E00010BD0000001C02582DE9F04106460D46A5
:1042F00017461C46DDF818800BE0FCF7A3FAA0EB8C
:104300000800A04201D3601C00B914B90320BDE825
:10431000F081306840692840A84201D1012000E0C6
:104320000020B842E9D00020F1E7704710B5FCF753
:104330008FFA10BD00B59DB04C210AA8FCF720F8FB
:10434000202102A8FCF71CF80220FCF74DFB00BF5F
:10435000002001902A48006840F440402849086045
:104360000846006800F4404001902648006840F08C
:104370000100244908600846006800F0010001902F
:1043800000BF00BF00BF1E48006800F40050B0F539
:10439000005FF8D102200A9001200D9040200E907D
:1043A0000220139000211491042115913C211691B3
:1043B00002211791189119910C211A9100211B913A
:1043C0001C910AA8FDF7F0FE08B1FCF78DF83F201C
:1043D00002900320039000200490082005904020C4
:1043E000069007900001089040200990042102A83F
:1043F000FDF734FC08B1FCF777F81DB000BD0000F4
:10440000184802582C0400583F48006840F47000D7
:104410003D4908603D48006800F00F00072806D2BB
:104420003A48006820F00F00C01D3849086038483D
:10443000006840F00100364908600020344910311E
:1044400008603348006833490840314908602F4804
:10445000006800F00F00072806D92C48006820F0FB
:104460000F00C01D29490860002029491831086043
:10447000091D0860091D0860274825492831086082
:104480002648091D08602648091D08600020091DEE
:1044900008602348091D08600020091D08602048A5
:1044A000091D08600020091D08601948006820F4F3
:1044B00080201749086000201549603108601948BC
:1044C00000686FF30F00B0F1005F02D201201649BF
:1044D00008600F48D430006800F4805098B90C4848
:1044E000D430006840F480500949D431086043F268
:1044F000D2000E4908600648D430006820F480508D
:104500000349D4310860704788ED00E00020005274
:10451000004402587FEDF6EA000202020000FF01AB
:10452000800201010010005C08810051004000522F
:104530002DE9F04780460D464046FCF73DF88146A0
:104540004946404600F018F80646002E02DA0020E0
:10455000BDE8F0872846FCF70BF804462846FBF731
:10456000D9FF87B20CB90020F2E7A4F1E040123085
:1045700006FB0700ECE70000F0B504461B48007896
:1045800010B94FF0FF30F0BD012902DB042900DC37
:1045900014B94FF0FF30F6E7154D2A4600231EE010
:1045A00012F83300884219D1012600200BE002EBFB
:1045B000C3077F1C3F5C14F800C0674501D000268C
:1045C00003E0471CF8B28842F1DB00BF2EB102EBDA
:1045D000C300B0F8050000B2D5E700BF5B1C41F690
:1045E00028508342DCD34FF0FF30CCE71C0000247E
:1045F000DC72F49100BFFEE702480068C0F30220BD
:10460000704700000CED00E010B5002804DB0A073D
:10461000130E054A135406E00A07140E034A00F06D
:104620000F031B1FD45410BD00E400E018ED00E0A0
:1046300010B5FFF7B7F8FFF77FFDFFF7CFFAFFF7E9
:10464000DDFAFBF783FF07A200210846FEF746FDCF
:104650000C20FEF7E1FF03A230210020FEF73EFD13
:1046600010BD0000E8BF99E698AFE4B880E4B8AAAE
:10467000E6B58BE8AF95EFBC8CE59388E59FBAE78C
:10468000B1B3E58D97E58C97E7BBBFE8B186EFBC8A
:104690008C73746D33327E0000BF5048006800F4A4
:1046A000003000B139E000BF00BF00BFBFF34F8F43
:1046B00000BF00BF00BF00BF00BF00BFBFF36F8FD0
:1046C00000BF00BF00BF00204549086000BF00BF19
:1046D00000BFBFF34F8F00BF00BF00BF00BF00BFD0
:1046E00000BFBFF36F8F00BF00BF00BF3B48006833
:1046F00040F400303949086000BF00BF00BFBFF37D
:104700004F8F00BF00BF00BF00BF00BF00BFBFF39F
:104710006F8F00BF00BF00BF00BF00BF2F4B1B68E3
:1047200003F4803303B148E000232C4C7034236041
:1047300000BF00BF00BFBFF34F8F00BF00BF00BF6F
:10474000231F1868C0F34E3100BFC0F3C90200BF79
:1047500043F6E07303EA41134FF0404404EA8274E5
:1047600023431F4C1034236000BF00BF131EA2F16F
:104770000102EDD10B1EA1F10101E6D100BF00BF86
:1047800000BFBFF34F8F00BF00BF00BF134B1B68BC
:1047900043F48033114C236000BF00BF00BFBFF360
:1047A0004F8F00BF00BF00BF00BF00BF00BFBFF3FF
:1047B0006F8F00BF00BF00BF00BFFCF755F8FFF7C9
:1047C000B9FDFFF729F8FFF7A5F8FFF785F8FFF720
:1047D0002FFF01E000F006F8FCE7000014ED00E018
:1047E00050EF00E010B54FF47A70FEF7CBFF10BD2C
:1047F0004FF04070E1EE100A704700000000010227
:104800000304010203040607080900000000000079
:104810000000000000000000000000000000000098
:104820000000000000000000000000000000000088
:104830000000000000000000000000000000000078
:104840000000000000000000000000000000000068
:105120000000000000000200C084FFCC9CC1CC88BD
:10513000C1CC80D9CC83D9CC8ED9CC98D9CC80D9CC
:10514000CC80D9CC88D9CC98CDCC0C0CCC0C36C02A
:105150000C63C0C6C1C074807D0000000000000068
:105160000000E6B58B2000000000000000000000F9
:10517000000000000000000000000000000000002F
:10518000000000000000000000000000000000001F
:10519000000000000000000000000000000000000F
:1051A00000000000000000000000000000000000FF
:1051B00000000000000002001B0C007318004338C0
:1051C000000380FFFF0000031F000318000398FF87
:1051D00003181802181806981806D8188678188C1C
:1051E00038F88D9C0F980800F000000000000000C7
:1051F0000000E8AF95200000000000000000000063
:10520000000000000000000000000000000000009E
:10521000000000000000000000000000000000008E
:10522000000000000000000000000000000000007E
:10523000000000000000000000000000000000006E
:10524000000000000000008301FEFFFF008301F06A
:10525000FF3F300030F0FF3F300030F0FF3F300CB8
:1052600030000600FEFFFFC0300CF8FF7F6730986B
:1052700060301860301F00300000000000000000A7
:105280000000E5B9952000000000000000000000CB
:10529000000000000000000000000000000000000E
:1052A00000000000000000000000000000000000FE
:1052B00000000000000000000000000000000000EE
:1052C00000000000000000000000000000000000DE
:1052D00000000000000000630080C100C080016089
:1052E000000330000618001C0E00700200C0F8FF1A
:1052F0000F00030E00030E800106800106C00006A9
:1053000060000738FC030E000000000000000000F1
:105310000000E5888620000000000000000000007A
:10532000000000000000000000000000000000007D
:10533000000000000000000000000000000000006D
:10534000000000000000000000000000000000005D
:10535000000000000000000000000000000000004D
:1053600000000018600C306018306010FEE1FF0093
:10537000600082EDC1C46C636C6C36FE65FF306604
:1053800018306618306018FEB1FF30301838181821
:105390001C1C180E0E18020218000000000000006D
:1053A0000000E8BEA820000000000000000000008F
:1053B00000000000000000000000000000000000ED
:1053C00000000000000000000000000000000000DD
:1053D00000000000000000000000000000000000CD
:1053E00000000000000000000000000000000000BD
:1053F000000000000000003800007000FFFFFF0008
:105400003800064E608C6338D03F08001C00202610
:1054100004F8C31CCFFFF1023041003000FFFFFF52
:1054200000300000300000300000000000000000EC
:105430000000E78E87200000000000000000000050
:10544000000000000000000000000000000000005C
:10545000000000000000000000000000000000004C
:10546000000000000000000000000000000000003C
:10547000000000000000000000000000000000002C
:1054800000000030800030800130000330FEFFFE5D
:1054900006C03086C4304018303030301860F00F0D
:1054A000C03EF87F300003300003300003300003BB
:1054B00030000330FFFF1E0000000000000000006D
:1054C0000000E68EA72000000000000000000000A1
:1054D00000000000000000000000000000000000CC
:1054E00000000000000000000000000000000000BC
:1054F00000000000000000000000000000000000AC
:10550000000000000000000000000000000000009B
:105510000000000000008001609801608C0163FCC5
:105520003F63860163820163FFFF63800163800143
:1055300063FC7F638C61638C61638C61608C6160F0
:105540008C3D6080013F0000000000000000000072
:105550000000E588B6200000000000000000000008
:10556000000000000000000000000000000000003B
:10557000000000000000000000000000000000002B
:10558000000000000000000000000000000000001B
:10559000000000000000000000000000000000000B
:1055A000000000000000000000FCC77F0CC6600C7B
:1055B000C660FCC77F0CC660003006FEFFFF006EB1
:1055C0000000C701F0010F1F00F8FCC77F0CC66088
:1055D0000CC660FCC77F0CC6600000000000000025
:1055E0000000E599A8200000000000000000000075
:1055F00000000000000000000000000000000000AB
:10560000000000000000000000000000000000009A
:10561000000000000000000000000000000000008A
:10562000000000000000000000000000000000007A
:10563000000000000800001800003000FEFFFF0618
:1056400000C00600C0E0FF0F00000700800100E07E
:1056500000003000FFFFFF0030000030000030008D
:10566000003000801F00000000000000000000006B
:105670000000E5AD972000000000000000000000E1
:10568000000000000000000000000000000000001A
:10569000000000000000000000000000000000000A
:1056A00000000000000000000000000000000000FA
:1056B00000000000000000000000000000000000EA
:1056C00000000020800130C000F8DFFFC8600684C1
:1056D000710C02390801100060000C70000CB8FF5A
:1056E000FF3C000C36040C320C0C30180C30100C43
:1056F00030000C30000C30E007000000000000001B
:105700000000E7ACA6200000000000000000000040
:105710000000000000000000000000000000000089
:105720000000000000000000000000000000000079
:105730000000000000000000000000000000000069
:105740000000000000000000000000000000000059
:10575000000000000000C0300060E000F0FFFF38F3
:105760006000F6FFFF336000F0FFFF306000F0FFE5
:10577000FF300000003000003000FEFFFF00FE019F
:105780008031077030380F30C0000000000000008A
:105790000000E99B862000000000000000000000DF
:1057A00000000000000000000000000000000000F9
:1057B00000000000000000000000000000000000E9
:1057C00000000000000000000000000000000000D9
:1057D00000000000000000000000000000000000C9
:1057E0000000000000000018000018000018000071
:1057F0001800FCFF7F0C18600C18600C18600C1867
:10580000600C1860FCFF7F0C186000180000180086
:105810000018000018000018000000000000000040
:105820000000E4B8AD20000000000000000000000F
:105830000000000000000000000000000000000068
:105840000000000000000000000000000000000058
:105850000000000000000000000000000000000048
:105860000000000000000000000000000000000038
:10587000000000001C00003800006000FFFFFF6017
:10588000000C60000CC00006C0000680010300830D
:105890000100C700006C0000380000EE00C0830764
:1058A00078003C0600E0000000000000000000005E
:1058B0000000E696872000000000000000000000C5
:1058C00000000000000000000000000000000000D8
:1058D00000000000000000000000000000000000C8
:1058E00000000000000000000000000000000000B8
:1058F00000000000000000000000000000000000A8
:10590000000000000000000000F8FF3F1800301801
:105910000030F8FF3F180030180030F8FF3F180043
:105920003004C62008C63018C63830C61820C6084D
:1059300000C600FEFFFF00000000000000000000A5
:105940000000E698BE2000000000000000000000FB
:105950000000000000000000000000000000000047
:105960000000000000000000000000000000000037
:105970000000000000000000000000000000000027
:105980000000000000000000000000000000000017
:10599000000000000000000000FCFF7F000000008D
:1059A0000000000000000000FFFFFF00300020307A
:1059B0000430300C3830181830300C30600630C0ED
:1059C000023080003000801F000000000000000056
:1059D0000000E7A4BA200000000000000000000062
:1059E00000000000000000000000000000000000B7
:1059F00000000000000000000000000000000000A7
:105A00000000000000000000000000000000000096
:105A10000000000000000000000000000000000086
:105A2000000000000000000000FEFFFF003000004A
:105A3000300000300030300030300030300030F0C6
:105A40007F303000303000303000303000303000F7
:105A5000303000FFFFFF00000000000000000000E9
:105A60000000E6ADA32000000000000000000000E0
:105A70000000000000000000000000000000000026
:105A80000000000000000000000000000000000016
:105A90000000000000000000000000000000000006
:105AA00000000000000000000000000000000000F6
:105AB000000000000000000300800100C0FF07603C
:105AC00000033880010C6000F4FF3F3000303030BC
:105AD0003030303030303030303030303030F830FE
:105AE00000980300070EE001781E00C000000000CF
:105AF0000000E8B49F20000000000000000000004B
:105B00000000000000000000000000000000000095
:105B10000000000000000000000000000000000085
:105B20000000000000000000000000000000000075
:105B30000000000000000000000000000000000065
:105B400000000000000000300000300000300000C5
:105B5000300060300630300C30301C1830381830CF
:105B6000300C30600E30E00630C002308000300073
:105B7000003000C01F000000000000000000000016
:105B80000000E5B08F2000000000000000000000D1
:105B90000000000000000000000000000000000005
:105BA00000000000000000000000000000000000F5
:105BB00000000000000000000000000000000000E5
:105BC00000000000000000000000000000000000D5
:105BD000000000000000C00003C60C01C48601C024
:105BE00080FFFECF60E0C060F8E360CCFE31C39878
:105BF00031308031FF0F1B0C0C1B06060E3C070ECC
:105C0000E0031BE0C3313C76E00718800000000091
:105C10000000E695B0200000000000000000000039
:105C20000000000000000000000000000000000074
:105C30000000000000000000000000000000000064
:105C40000000000000000000000000000000000054
:105C50000000000000000000000000000000000044
:105C600000000000000030000330000330FEFF3071
:105C70000003300003FFFD7F300C6030FC7F300CF0
:105C80006030FC7F300C60B0FD7F780C6007FFFF58
:105C900000601C001CF080030000000000000000F9
:105CA0000000E5A1AB2000000000000000000000A3
:105CB00000000000000000000000000000000000E4
:105CC00000000000000000000000000000000000D4
:105CD00000000000000000000000000000000000C4
:105CE00000000000000000000000000000000000B4
:105CF000000000000000000800001800003800FF4D
:105D0000FFFF000E00808301C0000770000CFCFF45
:105D10003F00C32000C30080C10080C1C0E0C0C0FC
:105D200038C0C007807F00000000000000000000B5
:105D30000000E58585200000000000000000000054
:105D40000000000000000000000000000000000053
:105D50000000000000000000000000000000000043
:105D60000000000000000000000000000000000033
:105D70000000000000000000000000000000000023
:105D8000000000000000003800007000FEFFFF0669
:105D900000C00686C3C0011E3800700600C00000A7
:105DA00000F8FF3F0018000018000018000018005D
:105DB000001800FEFFFF00000000000000000000CF
:105DC0000000E7A9BA200000000000000000000069
:105DD00000000000000000000000000000000000C3
:105DE00000000000000000000000000000000000B3
:105DF00000000000000000000000000000000000A3
:105E00000000000000000000000000000000000092
:105E100000000000000030600030300030F07F30C3
:105E20007870FF5B3830CC0CF88007B8C10F3C7A33
:105E300078360EC033F87F31186030186030186043
:105E400030186030F87F301860000000000000005B
:105E50000000E6A0BC2000000000000000000000E0
:105E60000000000000000000000000000000000032
:105E70000000000000000000000000000000000022
:105E80000000000000000000000000000000000012
:105E90000000000000000000000000000000000002
:106DA0000000000000000000000000000000C00320
:106DB000C003C003C003C003C0038003800180017F
:106DC00080018001800180018001800100000000BD
:106DD00000008001C003C00380010000000000002B
:106DE000000000000000C018E01CE01C700E30061F
:106DF00018038C0184000000000000000000000067
:106E00000000000000000000000000000000000082
:106E10000000000000000000000000000000000072
:106E20000000000000000000000000000000201032
:106E30002010201020102010FE7FFE7FFE7F100803
:106E400010081008100810081008FE7FFE7FFE7F53
:106E5000180C0804080408040804000000000000DE
:106E60000000000000000000000080008000C0035F
:106E7000B00C90189818981C981CB800B000F0003E
:106E8000E000C0038007800F800C801C80189C18D5
:106E90009C188C188C0C9806E00380008000800001
:106EA00000000000000000000000000000001C08BE
:106EB0003608220463046302630263026301630110
:106EC0002201B61C9C36402240634063206320634D
:106ED0001063106310220836081C00000000000038
:106EE0000000000000000000000000000000F000B2
:106EF00098008C018C018C018C018C00CC005C0012
:106F000038001C3E3C08320873086304E304C304E1
:106F10008303834306678C3E781C0000000000005A
:106F20000000000000001C003C003C00300030006D
:106F300010000C000600000000000000000000002F
:106F40000000000000000000000000000000000041
:106F50000000000000000000000000000000000031
:106F60000000000000000040002000100018000C8D
:106F7000000400060002000300038001800180017C
:106F800080018001800180018001800100030003F5
:106F9000000200060004000C001800100020004051
:106FA000000000000000020004000800180030008B
:106FB000200060004000C000C0008001800180010E
:106FC000800180018001800180018001C000C0003B
:106FD000C00060002000300018000800040002001B
:106FE00000000000000000000000000000000000A1
:106FF00000000003800380030C631C713839600DAE
:1070000080038003600D38391C718C61800380031C
:1070100080030000000000000000000000000000ED
:107020000000000000000000000000000000000060
:10703000000000000001000100010001000100014A
:107040000001FC7F000100010001000100010001BE
:10705000000100000000000000000000000000002F
:107060000000000000000000000000000000000020
:107070000000000000000000000000000000000010
:107080000000000000000000000000000000000000
:1070900000001C003C003C003000300010000C00E0
:1070A00006000000000000000000000000000000DA
:1070B00000000000000000000000000000000000D0
:1070C0000000FE7F00000000000000000000000043
:1070D00000000000000000000000000000000000B0
:1070E00000000000000000000000000000000000A0
:1070F0000000000000000000000000000000000090
:10710000000000000000000000000000000000007F
:10711000000018003C003C001800000000000000C7
:10712000000000000000000000400060002000306F
:10713000001000180008000C000400060002000304
:10714000000180018000C00040006000200030008D
:107150001000180008000C000400060002000000E7
:107160000000000000000000000000000000C0035C
:107170006004300C1818181818100C300C300C3033
:107180000C300C300C300C300C300C300C30181033
:1071900018181818300C6004C0030000000000002C
:1071A00000000000000000000000000000000001DE
:1071B0008001F8018001800180018001800180014F
:1071C00080018001800180018001800180018001B7
:1071D000800180018001C003F81F00000000000052
:1071E0000000000000000000000000000000E007B8
:1071F000101C0818043004300C300C30003000181B
:107200000018000C000600038001C0004000202090
:10721000102008200430FC1FFC1F000000000000AC
:107220000000000000000000000000000000E0037B
:1072300018060C0C0C180C180C1800180018000C70
:107240000006C003000E00180010003000300C30A3
:107250000C300C100C18180CE003000000000000AB
:107260000000000000000000000000000000000618
:10727000000600070007800680064006200620065C
:107280001006100608060C0604060206FE3F00065D
:107290000006000600060006C03F000000000000D7
:1072A0000000000000000000000000000000F03FAF
